:10000000F5C0000021C100001FC100001DC100009B
:100010001BC1000019C1000017C1000015C100007C
:1000200013C1000011C100000FC100000DC100008C
:100030000BC1000009C1000007C1000005C100009C
:1000400003C1000001C10000FFC00000FDC00000AE
:10005000FBC00000F9C00000F7C00000FFC30000B3
:10006000F3C00000C5C300009AC30000EDC000004B
:10007000EBC00000E9C00000E7C00000E5C00000E0
:10008000E3C00000E1C00000DFC00000DDC00000F0
:10009000DBC00000D9C00000D7C00000D5C0000000
:1000A000D3C00000D1C00000CFC00000CDC0000010
:1000B000CBC00000C9C00000C7C00000C5C0000020
:1000C000C3C00000C1C00000BFC00000BDC0000030
:1000D000BBC00000B9C00000B7C00000B5C0000040
:1000E000B3C0000000000A0B02090C0D0E08070344
:1000F00004010000000000000000000000000000FB
:1001000000000000000000000000000000000000EF
:1001100012111000000000000000000000000000AC
:100120000000000000000000000000002200250088
:1001300028002B002E0031003400020100000501D0
:1001400008010B0100002100240027002A002D00D7
:100150003000330001010000040107010A01050518
:100160000505070508080808020202020A0A08082D
:10017000040404040101010101010101030303035B
:1001800003030303040707070C0C0C0C0C0C0C0CEA
:100190000202020206060606060606060B0B0B0BFB
:1001A0000B0B0B0B01021020200808102040102020
:1001B000408002010201080402010102040810202B
:1001C0004080804020100804020180040201804029
:1001D0002010080402010804020101020408102092
:1001E00040800102040810204080780411241FBEC2
:1001F000CFEFD1E2DEBFCDBF00E00CBF12E0A0E048
:10020000B2E0E6E9FEE000E00BBF02C007900D920D
:10021000AA31B107D9F723E0AAE1B2E001C01D92EB
:10022000A135B207E1F710E0C6EFD0E000E005C06D
:1002300021970109802FFE0124D6C53FD10780E018
:100240000807B1F7AFD325C6DBCE90E0FC01EC5533
:10025000FE4F2491825A9E4FFC018491882399F08D
:1002600090E0880F991FFC01EC5BFE4FA591B491C3
:10027000FC01E65DFE4F859194918FB7F894EC9167
:10028000E22BEC938FBF0895FC01538D448D252FF5
:1002900030E0842F90E0821B930B541710F0CF9620
:1002A000089501970895FC01918D828D981761F052
:1002B000A28DAE0FBF2FB11D5D968C91928D9F5F69
:1002C0009F73928F90E008958FEF9FEF0895FC0148
:1002D000918D828D981731F0828DE80FF11D858DFB
:1002E00090E008958FEF9FEF0895FC01918D228D8E
:1002F000892F90E0805C9F4F821B91098F73992713
:100300000895FC01A48DA80FB92FB11DA35ABF4FAA
:100310002C91848D90E001968F739927848FA68904
:10032000B7892C93A089B1898C91837080648C9358
:10033000938D848D981306C00288F389E02D808107
:100340008F7D80830895EF92FF920F931F93CF9339
:10035000DF93EC0181E0888F9B8D8C8D98131AC000
:10036000E889F989808185FF15C09FB7F894EE89E7
:10037000FF896083E889F989808183708064808344
:100380009FBF81E090E0DF91CF911F910F91FF908F
:10039000EF900895F62E0B8D10E00F5F1F4F0F7337
:1003A0001127E02E8C8D8E110BC00FB607FCFACFF3
:1003B000E889F989808185FFF5CFCE01A2DFF2CFF0
:1003C000EB8DEC0FFD2FF11DE35AFF4FF0829FB72D
:1003D000F8940B8FEA89FB8980818062D0CFCF931C
:1003E000DF93EC01888D8823B1F0AA89BB89E88965
:1003F000F9898C9185FD03C0808186FD0CC00FB604
:1004000007FCF7CF8C9185FFF2CF808185FFEDCF80
:10041000CE0177DFEACFDF91CF91089583E292E0BA
:1004200064DF21E0892B09F420E0822F089580E029
:1004300090E0892B21F0F2DF81110E94000080E022
:1004400090E0892B49F080E090E0892B29F00E9410
:10045000000081110E94000080E090E0892B49F0AB
:1004600080E090E0892B29F00E94000081110E9419
:10047000000080E090E0892B49F080E090E0892B3B
:1004800029F00E94000081110C9400000895AF92A1
:10049000BF92CF92DF92EF92FF920F931F93CF9371
:1004A000DF936C017B018B01040F151FEB015E01D3
:1004B000AE18BF08C017D10759F06991D601ED9168
:1004C000FC910190F081E02DC6011995892B79F7F7
:1004D000C501DF91CF911F910F91FF90EF90DF90B9
:1004E000CF90BF90AF900895282F30E0F901EC51E4
:1004F000FF4F9491F901EC55FE4F4491225A3E4F23
:10050000F9012491222309F434C0992309F191506F
:100510009231F0F4E92FF0E08827EF56FD4F8F4F2E
:10052000B0C4C202C602A302BA02BE02A802C90235
:10053000CF02D302D902DD02E102E702EB02A802F8
:10054000EF02F502F902809180008F77809380009E
:10055000E22FF0E0EE0FFF1FE65DFE4FA591B49194
:100560008FB7F894EC91611148C040954E234C939D
:100570008FBF0895809180008F7DE8CF80918000AB
:10058000877FE4CF84B58F7784BDE2CF84B58F7D3C
:10059000FBCF8091B0008F778093B000D9CF80914E
:1005A000B0008F7DF9CF809190008F77809390007D
:1005B000CFCF809190008F7DF9CF80919000877F81
:1005C000F5CF8091A0008F778093A000C1CF80915C
:1005D000A0008F7DF9CF8091A000877FF5CF80911B
:1005E00020018F7780932001B3CF809120018F7DF0
:1005F000F9CF80912001877FF5CF4E2BB8CF3FB741
:10060000F89480911F0290912002A0912102B09154
:10061000220226B5A89B05C02F3F19F00196A11D07
:10062000B11D3FBFBA2FA92F982F8827BC01CD013C
:10063000620F711D811D911D42E0660F771F881F9B
:10064000991F4A95D1F708958F929F92AF92BF92CA
:10065000CF92DF92EF92FF926B017C01D0DF4B01D2
:100660005C01C114D104E104F104B1F0C8DF6819E0
:1006700079098A099B09683E73408105910588F3D1
:1006800021E0C21AD108E108F10888EE880E83E063
:10069000981EA11CB11CE5CFFF90EF90DF90CF908A
:1006A000BF90AF909F908F900895CF93DC011696E6
:1006B000CC911697ED91FC910280F381E02D199574
:1006C000C150C81B8C2FCF9108958BE008954F9295
:1006D0005F926F927F92AF92BF92CF92DF92EF9232
:1006E000FF920F931F93CF93DF936B017C0120E068
:1006F00030E040EC50E478D2DFD22B0177FD27C008
:1007000061E087E0F1DE60E089E0EEDE88EC849D68
:100710005001859DB00C1124D0E0C0E007E710E047
:10072000CA15DB05CCF461E086E0DEDE61E088E03E
:10073000DBDEC8010197F1F760E086E0D5DE60E01E
:1007400088E0D2DEC8010197F1F72196E9CF60E099
:1007500087E0CADE61E0D8CF2CEE31E545E052E417
:10076000C701B6012BD39B01AC0160E070E88BE3BD
:1007700095E4D5D120E030E040E85DE31FD3A1D27D
:10078000DF91CF911F910F91FF90EF90DF90CF906D
:10079000BF90AF907F906F905F904F9055CF1F921A
:1007A0000F920FB60F9211240BB60F922F933F9317
:1007B0004F935F936F937F938F939F93AF93BF9369
:1007C000EF93FF9383E292E09CDDFF91EF91BF9165
:1007D000AF919F918F917F916F915F914F913F91D9
:1007E0002F910F900BBE0F900FBE0F901F9018957A
:1007F0001F920F920FB60F9211240BB60F922F93E8
:100800008F939F93EF93FF93E0913302F091340223
:100810008081E0913902F0913A0282FD1DC0908101
:1008200080913C028F5F8F7320913D02821741F0CF
:10083000E0913C02F0E0ED5DFD4F958F80933C022E
:10084000FF91EF919F918F912F910F900BBE0F9081
:100850000FBE0F901F9018958081F2CF1F920F92BC
:100860000FB60F9211242F933F938F939F93AF93C3
:10087000BF9380911B0290911C02A0911D02B09128
:100880001E0230911A0223E0230F2D3758F50196EE
:10089000A11DB11D20931A0280931B0290931C028C
:1008A000A0931D02B0931E0280911F02909120021E
:1008B000A0912102B09122020196A11DB11D809349
:1008C0001F0290932002A0932102B0932202BF91B5
:1008D000AF919F918F913F912F910F900FBE0F90ED
:1008E0001F90189526E8230F0296A11DB11DD2CFA7
:1008F000E3E2F2E01382128288EE93E0A0E0B0E03F
:1009000084839583A683B78384E092E09183808378
:1009100085EC90E09587848784EC90E097878687C4
:1009200080EC90E0918B808B81EC90E0938B828BBC
:1009300082EC90E0958B848B86EC90E0978B868B95
:10094000118E128E138E148EA3EDB2E01A961C92A5
:100950001A9719961C9219971C961C921C971D9613
:100960001C921D9717961C92179718961C92189711
:1009700015961C92159781EE92E08D939C93F093BF
:100980005003E0934F03E0ECF2E086E192E09183C4
:10099000808313861486158616861786108A118A18
:1009A000128A0895789484B5826084BD84B581608C
:1009B00084BD85B5826085BD85B5816085BD80912A
:1009C0006E00816080936E001092810080918100A2
:1009D000826080938100809181008160809381009A
:1009E000809180008160809380008091B10084605C
:1009F0008093B1008091B00081608093B0008091BD
:100A00009100826080939100809191008160809339
:100A10009100809190008160809390008091A1006E
:100A200082608093A1008091A10081608093A100E9
:100A30008091A00081608093A0008091210182605C
:100A40008093210180912101816080932101809117
:100A5000200181608093200180917A0084608093DE
:100A60007A0080917A00826080937A0080917A0087
:100A7000816080937A0080917A00806880937A0008
:100A80001092C1008DE0E1DB8DE0DFDB8DE0DDDB8E
:100A900086E0DBDB87E0D9DB88E0D7DB89E0D5DBEC
:100AA0008AE0D3DB8BE0D1DB68E371E080E090E0AB
:100AB000CBDD60E070E080EF91E409DE60E070E0A3
:100AC00080E791E404DE60E070E080E091ECFFDD1F
:100AD00060E070E080E091ECFADD60E070E0CB0176
:100AE000F6DD60E070E080E291E4F1DD60E070E06E
:100AF00080E89FE3ECDD60E086E0F6DC60E088E023
:100B0000F3DC60E08AE0F0DC60E087E0EDDC60E0F0
:100B100089E0EADC60E08BE0E7DC89DCFECF50585E
:100B2000BB27AA270ED010C101D130F006D120F08A
:100B300031F49F3F11F41EF4F6C00EF4E095E7FB8C
:100B4000ECC0E92F12D180F3BA176207730784074C
:100B5000950718F071F49EF52AC10EF4E0950B2E5E
:100B6000BA2FA02D0B01B90190010C01CA01A001FF
:100B70001124FF27591B99F0593F50F4503E68F15A
:100B80001A16F040A22F232F342F4427585FF3CF9B
:100B9000469537952795A795F0405395C9F77EF46C
:100BA0001F16BA0B620B730B840BBAF09150A1F0B5
:100BB000FF0FBB1F661F771F881FC2F70EC0BA0F3B
:100BC000621F731F841F48F4879577956795B795C3
:100BD000F7959E3F08F0B3CF9395880F08F09927BB
:100BE000EE0F9795879508950CD0AEC0A6D040F033
:100BF0009DD030F021F45F3F19F08FC05111D8C063
:100C000092C0B3D098F39923C9F35523B1F3951B40
:100C1000550BBB27AA2762177307840738F09F5F1D
:100C20005F4F220F331F441FAA1FA9F333D00E2E8C
:100C30003AF0E0E830D091505040E695001CCAF7F9
:100C400029D0FE2F27D0660F771F881FBB1F2617BE
:100C500037074807AB07B0E809F0BB0B802DBF0191
:100C6000FF2793585F4F2AF09E3F510568F055C00B
:100C70009FC05F3FECF3983EDCF3869577956795D0
:100C8000B795F7959F5FC9F7880F911D9695879542
:100C900097F90895E1E0660F771F881FBB1F621761
:100CA00073078407BA0720F0621B730B840BBA0B1F
:100CB000EE1F88F7E095089504D06894B11178C0CC
:100CC00008955BD088F09F5790F0B92F9927B751BE
:100CD000A0F0D1F0660F771F881F991F1AF0BA9500
:100CE000C9F712C0B13081F062D0B1E008955FC0A1
:100CF000672F782F8827B85F39F0B93FCCF38695F6
:100D000077956795B395D9F73EF490958095709552
:100D100061957F4F8F4F9F4F089597F99F6780E8A8
:100D200070E060E008959FEF80EC089500240A943D
:100D30001616170618060906089500240A941216B6
:100D40001306140605060895092E0394000C11F4E9
:100D5000882352F0BB0F40F4BF2B11F460FF04C096
:100D60006F5F7F4F8F4F9F4F089557FD9058440FEF
:100D7000551F59F05F3F71F04795880F97FB991FFA
:100D800061F09F3F79F087950895121613061406B7
:100D9000551FF2CF4695F1DF08C016161706180644
:100DA000991FF1CF86957105610508940895E8941F
:100DB000BB2766277727CB0197F908950BD0C4CFBF
:100DC000B5DF28F0BADF18F0952309F0A6CFABCF36
:100DD0001124EECFCADFA0F3959FD1F3950F50E019
:100DE000551F629FF001729FBB27F00DB11D639FDD
:100DF000AA27F00DB11DAA1F649F6627B00DA11D83
:100E0000661F829F2227B00DA11D621F739FB00D28
:100E1000A11D621F839FA00D611D221F749F332798
:100E2000A00D611D231F849F600D211D822F762F31
:100E30006A2F11249F5750408AF0E1F088234AF02E
:100E4000EE0FFF1FBB1F661F771F881F915050407A
:100E5000A9F79E3F510570F060CFAACF5F3FECF33A
:100E6000983EDCF3869577956795B795F795E79566
:100E70009F5FC1F7FE2B880F911D9695879597F977
:100E80000895EE0FFF1F881F8BBF0790F691E02D8E
:060E90001994F894FFCF55
:100E960000000000A30147024401EF017501530160
:0A0EA600670100000000550365031A
:00000001FF
