:10000000F5C0000021C100001FC100001DC100009B
:100010001BC1000019C1000017C1000015C100007C
:1000200013C1000011C100000FC100000DC100008C
:100030000BC1000009C1000007C1000005C100009C
:1000400003C1000001C10000FFC00000FDC00000AE
:10005000FBC00000F9C00000F7C000003DC4000074
:10006000F3C0000003C40000D8C30000EDC00000CE
:10007000EBC00000E9C00000E7C00000E5C00000E0
:10008000E3C00000E1C00000DFC00000DDC00000F0
:10009000DBC00000D9C00000D7C00000D5C0000000
:1000A000D3C00000D1C00000CFC00000CDC0000010
:1000B000CBC00000C9C00000C7C00000C5C0000020
:1000C000C3C00000C1C00000BFC00000BDC0000030
:1000D000BBC00000B9C00000B7C00000B5C0000040
:1000E000B3C0000000000A0B02090C0D0E08070344
:1000F00004010000000000000000000000000000FB
:1001000000000000000000000000000000000000EF
:1001100012111000000000000000000000000000AC
:100120000000000000000000000000002200250088
:1001300028002B002E0031003400020100000501D0
:1001400008010B0100002100240027002A002D00D7
:100150003000330001010000040107010A01050518
:100160000505070508080808020202020A0A08082D
:10017000040404040101010101010101030303035B
:1001800003030303040707070C0C0C0C0C0C0C0CEA
:100190000202020206060606060606060B0B0B0BFB
:1001A0000B0B0B0B01021020200808102040102020
:1001B000408002010201080402010102040810202B
:1001C0004080804020100804020180040201804029
:1001D0002010080402010804020101020408102092
:1001E00040800102040810204080B60411241FBE84
:1001F000CFEFD1E2DEBFCDBF00E00CBF12E0A0E048
:10020000B2E0E6EEFFE000E00BBF02C007900D9207
:10021000AA31B107D9F723E0AAE1B2E001C01D92EB
:10022000A535B207E1F710E0C6EFD0E000E005C069
:1002300021970109802FFE01CCD6C53FD10780E070
:100240000807B1F7EDD3CDC6DBCE90E0FC01EC554D
:10025000FE4F2491825A9E4FFC018491882399F08D
:1002600090E0880F991FFC01EC5BFE4FA591B491C3
:10027000FC01E65DFE4F859194918FB7F894EC9167
:10028000E22BEC938FBF0895FC01538D448D252FF5
:1002900030E0842F90E0821B930B541710F0CF9620
:1002A000089501970895FC01918D828D981761F052
:1002B000A28DAE0FBF2FB11D5D968C91928D9F5F69
:1002C0009F73928F90E008958FEF9FEF0895FC0148
:1002D000918D828D981731F0828DE80FF11D858DFB
:1002E00090E008958FEF9FEF0895FC01918D228D8E
:1002F000892F90E0805C9F4F821B91098F73992713
:100300000895FC01A48DA80FB92FB11DA35ABF4FAA
:100310002C91848D90E001968F739927848FA68904
:10032000B7892C93A089B1898C91837080648C9358
:10033000938D848D981306C00288F389E02D808107
:100340008F7D80830895EF92FF920F931F93CF9339
:10035000DF93EC0181E0888F9B8D8C8D98131AC000
:10036000E889F989808185FF15C09FB7F894EE89E7
:10037000FF896083E889F989808183708064808344
:100380009FBF81E090E0DF91CF911F910F91FF908F
:10039000EF900895F62E0B8D10E00F5F1F4F0F7337
:1003A0001127E02E8C8D8E110BC00FB607FCFACFF3
:1003B000E889F989808185FFF5CFCE01A2DFF2CFF0
:1003C000EB8DEC0FFD2FF11DE35AFF4FF0829FB72D
:1003D000F8940B8FEA89FB8980818062D0CFCF931C
:1003E000DF93EC01888D8823B1F0AA89BB89E88965
:1003F000F9898C9185FD03C0808186FD0CC00FB604
:1004000007FCF7CF8C9185FFF2CF808185FFEDCF80
:10041000CE0177DFEACFDF91CF91089587E292E0B6
:1004200064DF21E0892B09F420E0822F089580E029
:1004300090E0892B21F0F2DF81110E94000080E022
:1004400090E0892B49F080E090E0892B29F00E9410
:10045000000081110E94000080E090E0892B49F0AB
:1004600080E090E0892B29F00E94000081110E9419
:10047000000080E090E0892B49F080E090E0892B3B
:1004800029F00E94000081110C9400000895AF92A1
:10049000BF92CF92DF92EF92FF920F931F93CF9371
:1004A000DF936C017B018B01040F151FEB015E01D3
:1004B000AE18BF08C017D10759F06991D601ED9168
:1004C000FC910190F081E02DC6011995892B79F7F7
:1004D000C501DF91CF911F910F91FF90EF90DF90B9
:1004E000CF90BF90AF900895282F30E0F901EC51E4
:1004F000FF4F9491F901EC55FE4F4491225A3E4F23
:10050000F9012491222309F434C0992309F191506F
:100510009231F0F4E92FF0E08827EF56FD4F8F4F2E
:1005200058C5C202C602A302BA02BE02A802C9028C
:10053000CF02D302D902DD02E102E702EB02A802F8
:10054000EF02F502F902809180008F77809380009E
:10055000E22FF0E0EE0FFF1FE65DFE4FA591B49194
:100560008FB7F894EC91611148C040954E234C939D
:100570008FBF0895809180008F7DE8CF80918000AB
:10058000877FE4CF84B58F7784BDE2CF84B58F7D3C
:10059000FBCF8091B0008F778093B000D9CF80914E
:1005A000B0008F7DF9CF809190008F77809390007D
:1005B000CFCF809190008F7DF9CF80919000877F81
:1005C000F5CF8091A0008F778093A000C1CF80915C
:1005D000A0008F7DF9CF8091A000877FF5CF80911B
:1005E00020018F7780932001B3CF809120018F7DF0
:1005F000F9CF80912001877FF5CF4E2BB8CF3FB741
:10060000F8948091230290912402A0912502B09148
:10061000260226B5A89B05C02F3F19F00196A11D03
:10062000B11D3FBFBA2FA92F982F8827BC01CD013C
:10063000620F711D811D911D42E0660F771F881F9B
:10064000991F4A95D1F708958F929F92AF92BF92CA
:10065000CF92DF92EF92FF926B017C01D0DF4B01D2
:100660005C01C114D104E104F104B1F0C8DF6819E0
:1006700079098A099B09683E73408105910588F3D1
:1006800021E0C21AD108E108F10888EE880E83E063
:10069000981EA11CB11CE5CFFF90EF90DF90CF908A
:1006A000BF90AF909F908F900895CF93DC011696E6
:1006B000CC911697ED91FC910280F381E02D199574
:1006C000C150C81B8C2FCF9108958BE008954F9295
:1006D0005F926F927F928F929F92AF92BF92CF92D2
:1006E000DF92EF92FF92CF93DF934B015C0120E00A
:1006F00030E040EC50E4BBD222D36B0177FD49C01F
:1007000061E087E0F1DE60E089E0EEDEB601DD0C5D
:10071000880B990B47D360931A0270931B02809346
:100720001C0290931D02F12CE12CC7E7D0E0B70129
:100730000F2C000C880B990B35D32B013C0120E0CA
:1007400030E048E453E460911A0270911B028091FA
:100750001C0290911D02DAD39B01AC01C301B201CE
:1007600082D287FF25C061E086E0BEDE61E088E0DE
:10077000BBDECE010197F1F760E086E0B5DE60E018
:1007800088E0B2DECE010197F1F78FEFE81AF80AA0
:10079000CECF60E087E0A8DE61E089E0A5DE6627D5
:1007A00077276C197D09072E000C880B990BB2CFA7
:1007B0002CEE31E545E052E4C501B401A7D36B014D
:1007C0007C0120E030E0A901C501B4019BD31816DB
:1007D000E4F4A701960160E070E88BE395E4DED1D4
:1007E00020E030E040E85DE391D3AED2DF91CF91DD
:1007F000FF90EF90DF90CF90BF90AF909F908F9041
:100800007F906F905F904F901FCF20E030E84BE3D8
:1008100055E4C701B601C3D1E3CF1F920F920FB6C3
:100820000F9211240BB60F922F933F934F935F9328
:100830006F937F938F939F93AF93BF93EF93FF93A8
:1008400087E292E05EDDFF91EF91BF91AF919F91C2
:100850008F917F916F915F914F913F912F910F9069
:100860000BBE0F900FBE0F901F9018951F920F9206
:100870000FB60F9211240BB60F922F938F939F9365
:10088000EF93FF93E0913702F09138028081E0917D
:100890003D02F0913E0282FD1DC090818091400298
:1008A0008F5F8F7320914102821741F0E0914002E7
:1008B000F0E0E95DFD4F958F80934002FF91EF914D
:1008C0009F918F912F910F900BBE0F900FBE0F90A5
:1008D0001F9018958081F2CF1F920F920FB60F9242
:1008E00011242F933F938F939F93AF93BF93809146
:1008F0001F0290912002A0912102B091220230911A
:100900001E0223E0230F2D3758F50196A11DB11DBE
:1009100020931E0280931F0290932002A093210235
:10092000B09322028091230290912402A09125028B
:10093000B09126020196A11DB11D809323029093D0
:100940002402A0932502B0932602BF91AF919F91FC
:100950008F913F912F910F900FBE0F901F90189580
:1009600026E8230F0296A11DB11DD2CFE7E2F2E0E7
:100970001382128288EE93E0A0E0B0E08483958336
:10098000A683B78384E092E09183808385EC90E036
:100990009587848784EC90E09787868780EC90E049
:1009A000918B808B81EC90E0938B828B82EC90E03A
:1009B000958B848B86EC90E0978B868B118E128EB4
:1009C000138E148EA7EDB2E01A961C921A97199600
:1009D0001C9219971C961C921C971D961C921D9791
:1009E00017961C92179718961C92189715961C929A
:1009F000159785EE92E08D939C93F0935403E093CA
:100A00005303E4ECF2E086E192E091838083138665
:100A10001486158616861786108A118A128A0895FA
:100A2000789484B5826084BD84B5816084BD85B5C9
:100A3000826085BD85B5816085BD80916E008160D5
:100A400080936E001092810080918100826080937B
:100A5000810080918100816080938100809180007D
:100A60008160809380008091B10084608093B100A8
:100A70008091B00081608093B0008091910082608D
:100A8000809391008091910081608093910080918A
:100A900090008160809390008091A100826080939B
:100AA000A1008091A10081608093A1008091A000AD
:100AB00081608093A0008091210182608093210158
:100AC00080912101816080932101809120018160CA
:100AD0008093200180917A00846080937A008091D5
:100AE0007A00826080937A0080917A00816080939E
:100AF0007A0080917A00806880937A001092C10019
:100B00008DE0A3DB8DE0A1DB8DE09FDB86E09DDB4C
:100B100087E09BDB88E099DB89E097DB8AE095DB67
:100B20008BE093DB68E371E080E090E08DDD60E0D6
:100B300070E080E792E4CBDD60E070E080EF91EC64
:100B4000C6DD60E070E080E091ECC1DD60E070E067
:100B500080E091E4BCDD60E070E080EA91E4B7DD24
:100B600060E070E080E490ECB2DD60E070E080EC8A
:100B700090ECADDD60E086E0B7DC60E088E0B4DCFE
:100B800060E08AE0B1DC60E087E0AEDC60E089E054
:100B9000ABDC60E08BE0A8DC4ADCFECF5058BB2722
:100BA000AA270ED075C166D130F06BD120F031F498
:100BB0009F3F11F41EF45BC10EF4E095E7FB51C1B9
:100BC000E92F77D180F3BA17620773078407950777
:100BD00018F071F49EF58FC10EF4E0950B2EBA2F2C
:100BE000A02D0B01B90190010C01CA01A001112433
:100BF000FF27591B99F0593F50F4503E68F11A16DF
:100C0000F040A22F232F342F4427585FF3CF46956F
:100C100037952795A795F0405395C9F77EF41F1691
:100C2000BA0B620B730B840BBAF09150A1F0FF0F5B
:100C3000BB1F661F771F881FC2F70EC0BA0F621F47
:100C4000731F841F48F4879577956795B795F79537
:100C50009E3F08F0B3CF9395880F08F09927EE0FC9
:100C6000979587950895D9D008F481E008950CD020
:100C70000FC107D140F0FED030F021F45F3F19F0F2
:100C8000F0C0511139C1F3C014D198F39923C9F3BD
:100C90005523B1F3951B550BBB27AA276217730782
:100CA000840738F09F5F5F4F220F331F441FAA1F36
:100CB000A9F333D00E2E3AF0E0E830D091505040F6
:100CC000E695001CCAF729D0FE2F27D0660F771FA4
:100CD000881FBB1F261737074807AB07B0E809F086
:100CE000BB0B802DBF01FF2793585F4F2AF09E3F1B
:100CF000510568F0B6C000C15F3FECF3983EDCF3ED
:100D0000869577956795B795F7959F5FC9F7880F93
:100D1000911D9695879597F90895E1E0660F771FE5
:100D2000881FBB1F621773078407BA0720F0621B76
:100D3000730B840BBA0BEE1F88F7E095089504D06F
:100D40006894B111D9C00895BCD088F09F5790F035
:100D5000B92F9927B751A0F0D1F0660F771F881FE0
:100D6000991F1AF0BA95C9F712C0B13081F0C3D0FB
:100D7000B1E00895C0C0672F782F8827B85F39F099
:100D8000B93FCCF3869577956795B395D9F73EF43F
:100D900090958095709561957F4F8F4F9F4F0895E7
:100DA000E89409C097FB3EF4909580957095619505
:100DB0007F4F8F4F9F4F9923A9F0F92F96E9BB27BB
:100DC0009395F695879577956795B795F111F8CF37
:100DD000FAF4BB0F11F460FF1BC06F5F7F4F8F4FA2
:100DE0009F4F16C0882311F096E911C0772321F098
:100DF0009EE8872F762F05C0662371F096E8862F30
:100E000070E060E02AF09A95660F771F881FDAF786
:100E1000880F9695879597F90895990F0008550FB3
:100E2000AA0BE0E8FEEF16161706E807F907C0F070
:100E300012161306E407F50798F0621B730B840B78
:100E4000950B39F40A2661F0232B242B252B21F452
:100E500008950A2609F4A140A6958FEF811D811DF2
:100E6000089597F99F6780E870E060E008959FEF2C
:100E700080EC089500240A94161617061806090631
:100E8000089500240A941216130614060506089500
:100E9000092E0394000C11F4882352F0BB0F40F488
:100EA000BF2B11F460FF04C06F5F7F4F8F4F9F4FC8
:100EB000089557FD9058440F551F59F05F3F71F04A
:100EC0004795880F97FB991F61F09F3F79F08795B1
:100ED0000895121613061406551FF2CF4695F1DF3A
:100EE00008C0161617061806991FF1CF86957105CA
:100EF000610508940895E894BB2766277727CB01FE
:100F000097F908958ADF08F48FEF08950BD0C0CFCA
:100F1000B1DF28F0B6DF18F0952309F0A2CFA7CFF4
:100F20001124EACFC6DFA0F3959FD1F3950F50E0CF
:100F3000551F629FF001729FBB27F00DB11D639F8B
:100F4000AA27F00DB11DAA1F649F6627B00DA11D31
:100F5000661F829F2227B00DA11D621F739FB00DD7
:100F6000A11D621F839FA00D611D221F749F332747
:100F7000A00D611D231F849F600D211D822F762FE0
:100F80006A2F11249F5750408AF0E1F088234AF0DD
:100F9000EE0FFF1FBB1F661F771F881F9150504029
:100FA000A9F79E3F510570F05CCFA6CF5F3FECF3F1
:100FB000983EDCF3869577956795B795F795E79515
:100FC0009F5FC1F7FE2B880F911D9695879597F926
:100FD0000895EE0FFF1F881F8BBF0790F691E02D3D
:060FE0001994F894FFCF04
:100FE60000000000A30147024401EF01750153010F
:0A0FF60067010000000055036503C9
:00000001FF
