:1000000014C1000043C1000041C100003FC1000015
:100010003DC100003BC1000039C1000037C10000F4
:1000200035C10000F4C50000F2C50000F0C50000B5
:100030002DC100002BC1000029C10000F2C5000045
:1000400025C1000023C1000021C100001FC1000024
:100050001DC100001BC1000019C10000D0C4000078
:1000600015C100009EC5000073C500000FC100004F
:100070000DC100000BC1000009C1000007C1000054
:1000800005C1000003C1000001C10000FFC0000065
:10009000FDC00000FBC00000F9C00000F7C0000078
:1000A000F5C00000F3C00000F1C00000EFC0000088
:1000B000EDC00000EBC00000E9C00000E7C0000098
:1000C000E5C00000E3C00000E1C00000DFC00000A8
:1000D000DDC00000DBC0000005C50000DAC4000080
:1000E000D5C0000062016501540158015E019C0108
:1000F00069016D01730177017B018101850189012E
:100100009C018F019301970100002100240027002A
:100110002A002D0030003300010100000401070116
:100120000A0100002200250028002B002E003100CB
:10013000340002010000050108010B01000020004D
:100140002300260029002C002F00320000010000AF
:10015000030106010901050505050705080808084A
:10016000020202020A0A080804040404010101014F
:10017000010101010303030303030303040707074A
:100180000C0C0C0C0C0C0C0C0202020206060606EF
:10019000060606060B0B0B0B0B0B0B0B01021020BC
:1001A00020080810204010204080020102010804AD
:1001B0000201010204081020408080402010080441
:1001C000020180040201804020100804020108049A
:1001D00002010102040810204080010204081020DE
:1001E000408000000A0B02090C0D0E0807030401F1
:1001F00000000000000000000000000000000000FF
:1002000000000000000000000000000000001211CB
:1002100010000000000000000000000000000000CE
:100220000000000000000000B60E11241FBECFEF3A
:10023000D1E2DEBFCDBF00E00CBF12E0A0E0B2E033
:10024000ECE0F2E200E00BBF02C007900D92AE3688
:10025000B107D9F724E0AEE6B2E001C01D92A73B9A
:10026000B207E1F711E0C5E1D1E000E006C0219757
:100270000109802FFE010E94F810C431D10780E0EF
:100280000807A9F70E94AB0B0C940411B9CE90E0BB
:10029000FC013197E231F10508F04EC08827EE5895
:1002A000FF4F8F4F0C94F810809180008F7703C020
:1002B000809180008F7D80938000089580918000E0
:1002C000877FF9CF84B58F7702C084B58F7D84BDD9
:1002D00008958091B0008F7703C08091B0008F7D2A
:1002E0008093B0000895809190008F7707C080912F
:1002F00090008F7D03C080919000877F8093900055
:1003000008958091A0008F7707C08091A0008F7D15
:1003100003C08091A000877F8093A0000895809102
:1003200020018F7707C0809120018F7D03C08091CD
:100330002001877F8093200108953FB7F894809132
:10034000A8029091A902A091AA02B091AB0226B591
:10035000A89B05C02F3F19F00196A11DB11D3FBFFD
:10036000BA2FA92F982F8827820F911DA11DB11D8B
:10037000BC01CD0142E0660F771F881F991F4A9587
:10038000D1F708958BE00895CF92DF92EF92FF921C
:100390000F931F93CF93DF936C017A018B01C0E021
:1003A000D0E0CE15DF0581F0D8016D918D01D60129
:1003B000ED91FC910190F081E02DC6011995892BFA
:1003C00011F02196EECF7E01C701DF91CF911F91F1
:1003D0000F91FF90EF90DF90CF900895FC01538D27
:1003E000448D252F30E0842F90E0821B930B54170F
:1003F00010F0CF96089501970895FC01918D828D9C
:10040000981761F0828DDF01A80FB11D5D968C9168
:10041000928D9F5F9F73928F90E008958FEF9FEF73
:100420000895FC01918D828D981731F0828DE80F2F
:10043000F11D858D90E008958FEF9FEF0895FC01E9
:10044000918D228D892F90E0805C9F4F821B9109B6
:100450008F73992708958CEA92E0F1DF21E0892BD0
:1004600009F420E0822F089589E493E0E8DF21E099
:10047000892B09F420E0822F0895FC01848DDF018F
:10048000A80FB11DA35ABF4F2C91848D90E0019607
:100490008F739927848FA689B7892C93A089B189F6
:1004A0008C91837080648C93938D848D981306C097
:1004B0000288F389E02D80818F7D80830895EF92FB
:1004C000FF920F931F93CF93DF93EC0181E0888F0E
:1004D0009B8D8C8D981305C0E889F989808185FDF5
:1004E00025C0F62E0B8D10E00F5F1F4F0F731127E5
:1004F000E02E8C8DE8120BC00FB607FCFACFE8890E
:10050000F989808185FFF5CFCE01B7DFF2CF8B8DE2
:10051000FE01E80FF11DE35AFF4FF0829FB7F894F8
:100520000B8FEA89FB89808180620AC09FB7F894AB
:10053000EE89FF896083E889F9898081837080640E
:1005400080839FBF81E090E0DF91CF911F910F9159
:10055000FF90EF900895CF93DF93EC01888D88236F
:10056000C1F0EA89FB89808185FD05C0A889B98928
:100570008C9186FD0EC00FB607FCF5CF808185FFFC
:10058000F2CFA889B9898C9185FFEDCFCE0175DFB7
:10059000E8CFDF91CF91089580E090E0892B19F0AA
:1005A00063DF811120C080E090E0892B41F080E082
:1005B00090E0892B21F00E940000811117C080E09B
:1005C00090E0892B41F080E090E0892B21F00E949F
:1005D000000081110EC080E090E0892B79F03BDFB4
:1005E00081110AC008950E940000DDCF0E94000022
:1005F000E6CF0E940000EFCF0C9400000895FC01AC
:100600008681845F0895FC01611102C0828508958E
:10061000613011F481850895623011F48085089568
:10062000633011F487810895643011F4868508954C
:10063000653011F485850895663011F48485089538
:10064000673011F483850895683011F48089089526
:10065000693011F4878508956A3011F4818908950D
:100660006B3011F4828908950480F581E02DE60F46
:10067000F11D3C9780810895CF93DC011696CC91B3
:100680001697ED91FC910280F381E02D1995C150F0
:10069000C81B8C2FCF910895089580E090E00895B5
:1006A0000E940011CF93DF93282F30E0F901EE5123
:1006B000FE4F8491F901E456FE4FD491F901EA5AB4
:1006C000FE4FC491CC2389F08111E1DDEC2FF0E0E5
:1006D000EE0FFF1FE45CFE4FA591B491EC91ED236A
:1006E00081E090E021F480E002C080E090E0DF91C2
:1006F000CF9108958F929F92AF92BF92CF92DF9247
:10070000EF92FF92CF93DF93CDB7DEB763970FB62B
:10071000F894DEBF0FBECDBF1092250410922404C2
:1007200080910904BFDF892B11F41AD4C3D48091BE
:100730002404909125048130910549F480900E04A1
:1007400090900F04A0901004B090110406C0812C6A
:10075000912C30E8A32E3FEBB32E8092EA039092C7
:10076000EB03A092EC03B092ED038130910549F4C4
:10077000C0900A04D0900B04E0900C04F0900D049B
:1007800006C0C12CD12C20E8E22E2FEBF22EC09215
:10079000EE03D092EF03E092F003F092F1030197A1
:1007A00029F480911A0490911B0402C08FEF9FEFEF
:1007B0009093F3038093F20320E030E040EA50E4AA
:1007C000C501B4010E94911018163CF520E030E0FC
:1007D00040EA50E4C701B6010E9491101816ECF4EB
:1007E00020E030E84BEB54E4C501B4010E94DB0F7C
:1007F00087FF13C020E030E046E154E4C701B601B2
:100800000E94DB0F87FF09C082E2E6EEF3E0A2E779
:10081000B2E001900D928A95E1F78091700290917B
:100820007102019690937102809370020A97A4F16D
:1008300080916E0290916F02019690936F02809367
:100840006E0290938F0280938E0280E18B8381E011
:100850008C8382E792E09E838D8382E28F838CE09B
:1008600092E09A83898388E0E0E0F2E0DE01189666
:1008700001900D928A95E1F78EEF9FEF998B888B0F
:100880001A8A1B8ACE010196E4D282E392E021D338
:10089000109271021092700263960FB6F894DEBF48
:1008A0000FBECDBFDF91CF91FF90EF90DF90CF9043
:1008B000BF90AF909F908F9008951F93CF93DF9339
:1008C000282F30E0F901EE51FE4F8491F901E456F2
:1008D000FE4FD491F901EA5AFE4FC491CC23B9F0EE
:1008E000162F8111D4DCEC2FF0E0EE0FFF1FEE5D30
:1008F000FE4FA591B4919FB7F894111104C08C914B
:10090000D095D82302C0EC91DE2BDC939FBFDF9102
:10091000CF911F910895CF93DF9390E0FC01E456AF
:10092000FE4F2491FC01EA5AFE4F8491882361F125
:1009300090E0880F991FFC01E85FFE4FC591D491AC
:10094000FC01EE5DFE4FA591B491611109C09FB706
:10095000F8948881209582238883EC912E230BC004
:10096000623061F49FB7F8948881322F30958323E9
:100970008883EC912E2B2C939FBF06C08FB7F894E1
:10098000E8812E2B28838FBFDF91CF9108958F921E
:100990009F92AF92BF92CF92DF92EF92FF926B0144
:1009A0007C01CBDC4B015C01C114D104E104F104F6
:1009B000E9F0C3DCDC01CB0188199909AA09BB095C
:1009C000883E9340A105B10578F321E0C21AD10811
:1009D000E108F10888EE880E83E0981EA11CB11C86
:1009E000C114D104E104F10421F7DECFFF90EF90B0
:1009F000DF90CF90BF90AF909F908F9008951F92FF
:100A00000F920FB60F9211242F933F938F939F93C2
:100A1000AF93BF938091A4029091A502A091A602EA
:100A2000B091A7023091A30223E0230F2D3720F4C9
:100A30000196A11DB11D05C026E8230F0296A11D38
:100A4000B11D2093A3028093A4029093A502A093CA
:100A5000A602B093A7028091A8029091A902A0914A
:100A6000AA02B091AB020196A11DB11D8093A8020C
:100A70009093A902A093AA02B093AB02BF91AF9149
:100A80009F918F913F912F910F900FBE0F901F90CC
:100A900018951F920F920FB60F9211240BB60F925A
:100AA0002F933F934F935F936F937F938F939F9376
:100AB000AF93BF93EF93FF938CEA92E0DEDCFF915C
:100AC000EF91BF91AF919F918F917F916F915F91C6
:100AD0004F913F912F910F900BBE0F900FBE0F9033
:100AE0001F9018951F920F920FB60F9211240BB6FC
:100AF0000F922F938F939F93EF93FF93E091BC02FC
:100B0000F091BD028081E091C202F091C30282FDAA
:100B100012C090818091C5028F5F8F732091C602B1
:100B2000821751F0E091C502F0E0E455FD4F958F3A
:100B30008093C50201C08081FF91EF919F918F91B9
:100B40002F910F900BBE0F900FBE0F901F90189516
:100B50001F920F920FB60F9211240BB60F922F9384
:100B60003F934F935F936F937F938F939F93AF9335
:100B7000BF93EF93FF9389E493E07FDCFF91EF91C4
:100B8000BF91AF919F918F917F916F915F914F91A5
:100B90003F912F910F900BBE0F900FBE0F901F90A3
:100BA00018951F920F920FB60F9211240BB60F9249
:100BB0002F938F939F93EF93FF93E0915903F091BD
:100BC0005A038081E0915F03F091600382FD12C0BF
:100BD0009081809162038F5F8F73209163038217EE
:100BE00051F0E0916203F0E0E75BFC4F958F80935A
:100BF000620301C08081FF91EF919F918F912F91AE
:100C00000F900BBE0F900FBE0F901F9018951F9264
:100C10000F920FB60F9211240F900FBE0F901F90DE
:100C200018951F920F920FB60F9211240BB60F92C8
:100C30002F933F934F935F936F937F938F939F93E4
:100C4000AF93BF93EF93FF9380919C0290919D028D
:100C50008093B20080919F029091A002A091A10286
:100C6000B091A2020196A11DB11D80939F029093A5
:100C7000A002A093A102B093A20280919F02909142
:100C8000A002A091A102B091A202409198025091BD
:100C9000990260919A0270919B0284179507A607AA
:100CA000B70710F180919E0281111EC081E08093F0
:100CB0009E0280919F029091A002A091A102B0910A
:100CC000A202841B950BA60BB70B80939F029093F7
:100CD000A002A093A102B093A202E0919602F0912B
:100CE0009702199510929E02FF91EF91BF91AF91DB
:100CF0009F918F917F916F915F914F913F912F9134
:100D00000F900BBE0F900FBE0F901F901895A091E3
:100D1000B504B091B604ED91FC9111970190F0816A
:100D2000E02D682FCD011994CF9393E8980F92305E
:100D300020F0982F9D7F913129F4C82F8DE7E7DFB0
:100D400080E28C27CF91E3CFFC0164857585660F27
:100D5000771F82859385680F791F660F771F8085BF
:100D60009185680F791F660F771F86819781680FBD
:100D7000791F660F771F84819581680F791F660F31
:100D8000771F82819381680F791F660F771F80819B
:100D90009181680F791F072E000C880B990B0E9418
:100DA000E10F20E030E040E05CE30C949510FC01A2
:100DB000828D938D880F991F208D318D820F931F07
:100DC000880F991F26893789820F931F880F991FD3
:100DD00024893589820F931F880F991F22893389AF
:100DE000820F931F880F991F20893189820F931FCB
:100DF000880F991F26853785820F931F880F991FAB
:100E000024853585820F931F880F991F228533858E
:100E1000820F931F880F991F20853185820F931FA2
:100E2000880F991F26813781820F931F880F991F82
:100E300024813581820F931F880F991F228133816E
:100E4000820F931F880F991F20813181820F931F7A
:100E50000895EF92FF921F93CF93DF93EC018EE7FB
:100E600056DF1E818CE0810F90E00296892F5CDFB7
:100E70008EE0810F59DF8A8157DF8B8155DF1A8120
:100E80008B81180FE12CF12C8E81845F90E0E816A5
:100E9000F90664F46E2DCE01B6DB46DF6E2DCE0171
:100EA000B2DB180F8FEFE81AF80AEECF812F80958A
:100EB0003BDF8091B5049091B604DC01ED91FC918B
:100EC0000680F781E02DDF91CF911F91FF90EF9089
:100ED0001994CF93DF93009771F0FC0101900020EB
:100EE000E9F73197AF01481B590BBC0189E493E046
:100EF0004BDAEC0102C0C0E0D0E042E050E06AE62C
:100F000072E089E493E040DA8C0F9D1FDF91CF916E
:100F10000895FC01A089B18982E08C93A485B585F0
:100F20001C92A685B78580E18C93108EA489B58923
:100F300086E08C93A289B3898C9180618C93A2897D
:100F4000B3898C9188608C93A289B3898C918068D5
:100F50008C930288F389E02D80818F7D80830895B2
:100F60000F931F93CF93DF9310921C0410921D04D4
:100F700010921E0410921F0410922004109221045B
:100F8000109222041092230461E08091080495DC01
:100F900060E08091090491DC61E080910904BBDC90
:100FA000C3E2D0E0CE010197F1F760E08091080440
:100FB00084DC2197F1F7C0E003E210E061E080916A
:100FC00008047BDC60E080910904A5DCC80101977E
:100FD000F1F760E08091080470DC8091090462DB25
:100FE000892B51F1C032A0F480911C0490911D0412
:100FF000A0911E04B0911F040196A11DB11D809304
:101000001C0490931D04A0931E04B0931F0414C0ED
:101010008091200490912104A0912204B091230496
:101020000196A11DB11D8093200490932104A093EB
:101030002204B093230416C0CF31A0F480911C0485
:1010400090911D04A0911E04B0911F04880F991F58
:10105000AA1FBB1F80931C0490931D04A0931E0421
:10106000B0931F0480EE8C0F8F31A0F48091200488
:1010700090912104A0912204B0912304880F991F1C
:10108000AA1FBB1F8093200490932104A0932204E5
:10109000B0932304C8010197F1F7CF5FC03409F082
:1010A0008DCF83E391E00197F1F7DF91CF911F910D
:1010B0000F9108952F923F924F925F926F927F927D
:1010C0008F929F92AF92BF92CF92DF92EF92FF9258
:1010D0000F931F93CF93DF93CDB7DEB7CA55D109D6
:1010E0000FB6F894DEBF0FBECDBFDE01A75BBF4FCA
:1010F00080E1FD01282F11922A95E9F79E01275CD6
:101100003F4FF90111928A95E9F78CE12C51310991
:10111000F901982F11929A95E9F72C513109F901AB
:1011200011928A95E9F780901C0490901D04A0907C
:101130001E04B0901F04B7FC40C2B501A4014427AF
:10114000552766277076411551056105704609F0EF
:1011500034C281E090E09093250480932404B5018B
:10116000A40135E176956795579547953A95D1F75E
:101170007A0121E0E222FF24B501A401E4E17695A1
:10118000679557954795EA95D1F7FA01E170FF27E2
:10119000B501A40113E176956795579547951A9582
:1011A000D1F7BA01617077279501840142E1369544
:1011B0002795179507954A95D1F7A80141705527AE
:1011C0002401350111E176946794579447941A9558
:1011D000D1F79201217033276B963FAF2EAF6B97FB
:1011E000850101701127240135012FE07694679461
:1011F000579447942A95D1F7620131E0C322DD2448
:10120000240135013EE076946794579447943A95CB
:10121000D1F7120121E022223324240135012DE0EF
:1012200076946794579447942A95D1F731E04322F6
:10123000552493FE04C01F969C938E931E9792FE96
:1012400006C081E090E067969FAF8EAF679791FEF2
:1012500006C081E090E065969FAF8EAF659790FEE7
:1012600006C081E090E063969FAF8EAF639787FEE4
:1012700006C081E090E061969FAF8EAF619786FED9
:1012800006C081E090E02F969FAF8EAF2F9785FE2E
:1012900006C081E090E02D969FAF8EAF2D9784FE23
:1012A00006C081E090E02B969FAF8EAF2B9783FE18
:1012B00006C081E090E029969FAF8EAF299782FE0D
:1012C00006C081E090E027969FAF8EAF279781FE02
:1012D00006C081E090E025969FAF8EAF259780FEF7
:1012E00006C081E090E023969FAF8EAF2397809158
:1012F000200490912104A0912204B0912304B7FF0F
:1013000007C0AA24A394B12C2196BFAEAEAE2197FC
:10131000B6FF05C0AA24A394B12CBEAEADAEB5FFF6
:1013200005C0AA24A394B12CBCAEABAEB4FF05C0DB
:10133000AA24A394B12CBAAEA9AEB3FF05C0AA24C7
:10134000A394B12CB8AEAFAAB2FF05C0AA24A3944F
:10135000B12CBEAAADAAB1FF05C0AA24A394B12C9A
:10136000BCAAABAAB0FF05C0AA24A394B12CBAAA08
:10137000A9AAA7FF05C0AA24A394B12CB8AAAFA616
:10138000A6FF05C0AA24A394B12CBEA6ADA6A5FFB6
:1013900005C0AA24A394B12CBCA6ABA6A4FF05C08B
:1013A000AA24A394B12CBAA6A9A6A3FF05C0AA2477
:1013B000A394B12CB8A6AFA2A2FF05C0AA24A394FF
:1013C000B12CBEA2ADA2A1FF05C0AA24A394B12C4A
:1013D000BCA2ABA2A0FF05C0AA24A394B12CBAA2C0
:1013E000A9A297FF05C0AA24A394B12CB8A2AF8EDE
:1013F00096FF05C0AA24A394B12CBE8EAD8E95FF96
:1014000005C0AA24A394B12CBC8EAB8E94FF05C05A
:10141000AA24A394B12CBA8EA98E93FF05C0AA2446
:10142000A394B12CB88EAF8A92FF05C0AA24A394CE
:10143000B12CBE8AAD8A91FF05C0AA24A394B12C19
:10144000BC8AAB8A90FF05C0AA24A394B12CBA8AA7
:10145000A98A87FF05C0AA24A394B12CB88AAF86B5
:1014600086FF05C0AA24A394B12CBE86AD8685FF55
:1014700005C0AA24A394B12CBC86AB8684FF05C00A
:10148000AA24A394B12CBA86A98683FF05C0AA24F6
:10149000A394B12CB886AF8282FF05C0AA24A3947E
:1014A000B12CBE82AD8281FF05C0AA24A394B12CC9
:1014B000BC82AB8280FF04C081E090E09A83898384
:1014C000EE0CFF1CEE0DFF1DEE0FFF1F6E0F7F1FBA
:1014D000660F771F460F571F440F551F6B962EAD93
:1014E0003FAD6B97240F351F220F331F020F131FC1
:1014F000000F111FC00ED11ECC0CDD1C2C0C3D1C8E
:10150000220C331C420C531C50921B0440921A04B0
:10151000CE014D964CDC8C01CE01875B9F4F14DCD5
:101520006B017C0169962EAD3FAD6997B801110F33
:10153000880B990B2130310551F443D5A701960151
:10154000D6D420E030E040E85FE3D0D404C039D501
:10155000A7019601CCD460930A0470930B04809386
:101560000C0490930D04CE01019621DC8C01CE0178
:10157000C996EADB6B017C0129962EAD3FAD299718
:10158000B801110F880B990B2130310551F419D591
:10159000A7019601ACD420E030E040E85FE3A6D498
:1015A00004C00FD5A7019601A2D460930E047093D6
:1015B0000F048093100490931104C65ADF4F0FB6A6
:1015C000F894DEBF0FBECDBFDF91CF911F910F9179
:1015D000FF90EF90DF90CF90BF90AF909F908F9053
:1015E0007F906F905F904F903F902F900895EF9273
:1015F000FF921F93CF93DF9361E0809108045DD940
:1016000060E08091090459D961E08091090483D98F
:10161000C3E2D0E0CE010197F1F760E080910804C9
:101620004CD92197F1F7C0E0D0E010E093E2E92E29
:10163000F12C61E08091080440D960E080910904B8
:101640006AD9C7010197F1F760E08091080435D9A4
:101650008091090427D8892B09F021961F3011F0B9
:10166000CC0FDD1FC7010197F1F71F5F103109F79C
:1016700083E391E00197F1F7CE01DF91CF911F91C4
:10168000FF90EF900895EF92FF921F93CF93DF9317
:10169000182F8091090406D8892B09F461DC61E0D8
:1016A000809108040AD961E08091090406D961E0BB
:1016B0008091090430D9C3E2D0E0CE010197F1F75F
:1016C00060E080910804F9D82197F1F7D12FC0E0AC
:1016D00083E2E82EF12C61E080910804EED8D7FF78
:1016E00002C061E001C060E080910904E6D8C70152
:1016F0000197F1F760E080910804DFD8C73021F44A
:1017000060E08091090407D9C7010197F1F7DD0F67
:10171000CF5FC83001F783E391E00197F1F7CAE0AA
:10172000809109040E945203892B39F460DF8150B3
:10173000C1E0811749F0C0E007C06EE170E080E0D1
:1017400090E025D9C15061F78C2FDF91CF911F9187
:10175000FF90EF900895CF93DF93CDB7DEB7E59775
:101760000FB6F894DEBF0FBECDBF789484B582600B
:1017700084BD84B5816084BD85B5826085BD85B535
:10178000816085BD80916E00816080936E001092B3
:10179000810080918100826080938100809181002E
:1017A00081608093810080918000816080938000BF
:1017B0008091B10084608093B1008091B00081601D
:1017C0008093B0008091910082608093910080911D
:1017D000910081608093910080919000816080935E
:1017E00090008091A10082608093A1008091A1006F
:1017F00081608093A1008091A00081608093A0000F
:10180000809121018260809321018091210181607A
:10181000809321018091200181608093200180913B
:101820007A00846080937A0080917A00826080934D
:101830007A0080917A00816080937A0080917A00AA
:10184000806880937A001092C10089E493E061DBA4
:101850008CEA92E05EDB8CEA92E09093B60480938F
:10186000B50461E08091080456D860E080910904D5
:1018700052D861E0809108044ED861E0809108045C
:101880001CD86EE170E080E090E081D860ED77E0F8
:1018900080E090E07CD860E0809108040ED80FEFE3
:1018A0001FE701501109B9F1809109040E94520308
:1018B000892BB9F755DB8091200490912104A091E8
:1018C0002204B0912304883F9F4FA105B10519F56B
:1018D00061E070E080E090E05AD883E7898385E09A
:1018E0008A838EE08B8385E18C831D821E8288E251
:1018F0008F838E010F5F1F4F7E0188E0E80EF11C81
:10190000D8018D918D01BFDE72DE0E151F05C1F766
:1019100080E1B9DE6CDE02E310E010922504109243
:101920002404809109040E945203892B11F418DBCE
:10193000C1DB0150110989F78AE090E0A0E0B0E036
:101940008093980290939902A0939A02B0939B027D
:101950008AE793E0909397028093960280917000BB
:101960008E7F809370008091B0008C7F8093B00058
:101970008091B100877F8093B1008091B6008F7D08
:101980008093B600809170008D7F8093700080916D
:10199000B10084608093B1008091B1008C7F80930E
:1019A000B10086E090E090939D0280939C0210929B
:1019B0009F021092A0021092A1021092A202109215
:1019C0009E0280919C0290919D028093B200809132
:1019D000700081608093700002E011E063E0362EB9
:1019E000FE0131967F017CE0C72E72E0D72E812C5C
:1019F000E2EA9E2EE3E1AE2EB12CF0E24F2EF2E0B1
:101A00005F2EFCE96F2EF0E47F2E8091400481115F
:101A100098C180914104811194C150E2252E80919A
:101A2000B5049091B604DC01ED91FC910084F18540
:101A3000E02D1995892B09F4A7C08091B5049091E8
:101A4000B604DC01ED91FC910284F385E02D19953B
:101A50008093440490914304992331F18E3719F413
:101A60003092410491C08D37F9F48091B504909182
:101A7000B604DC01ED91FC910084F185E02D19950F
:101A8000892B79F08091B5049091B604DC01ED9139
:101A9000FC910284F385E02D1995822580934404FE
:101AA00003C010934204BBCF80914204882339F0D5
:101AB00080914404822580934404109242048091D2
:101AC0004304833038F02091450490914404920FF0
:101AD000909345048130A9F060F08230C9F08330E2
:101AE000F1F48091440480933B04B4E0B093430448
:101AF00096CF809144048E3709F091CF1093430420
:101B00008ECF8091440480933C040093430487CF9C
:101B10008091440480933D043092430480CF8F36FB
:101B200018F00093410430C0282F30E040913D046C
:101B300050E04D5F5F4F24173507A9F4909145049D
:101B40009F3F49F49091440490933E0410934004C5
:101B50001092410402C010934104845080933F04CA
:101B60001092430411C080914404E0913904F09133
:101B70003A042E0F3F1FF90134978083809143046C
:101B80008F5F809343044BCF80914004882309F4F6
:101B9000C5C080913B04803909F0BDC0E091390493
:101BA000F0913A04F0932904E093280480932A04E6
:101BB00010932F0480913E0480932D048091410462
:101BC0008093300480913F0480932E0480913C04E4
:101BD00080932B0480913D0480932C04808190E0BD
:101BE000A0E0B0E0782F662755274427818190E058
:101BF000A0E0B0E0DC0199278827840F951FA61F7D
:101C0000B71F2381820F911DA11DB11D228130E0DC
:101C1000322F2227820F931FA11DB11D8093310403
:101C200090933204A0933304B0933404848190E001
:101C3000A0E0B0E0782F662755274427858190E003
:101C4000A0E0B0E0DC0199278827840F951FA61F2C
:101C5000B71F2781820F911DA11DB11D268130E084
:101C6000322F2227820F931FA11DB11D80933504AF
:101C700090933604A0933704B093380484859FEF83
:101C8000980F923008F03FC009833A821B821C8271
:101C90001D821E821F82188619861A861B861C8644
:101CA0001E861D86188A1F861A8A198A1C8A1B8A14
:101CB0001E8A1D8A188E1F8A1A8E198E1C8E1B8EE4
:101CC0001E8E1D8E18A21F8E1AA219A280E18DA34E
:101CD0001EA3F8A6EFA282E289A7DCA2CBA28AA665
:101CE0009BA6ACA6BDA64EA65FA668AA79AA8EEF53
:101CF0009FEF9BAB8AAB1CAA1DAACE018396A9D8E5
:101D000083E492E00AC0833019F48CE492E005C0C9
:101D10008FE492E002C08FE592E0DBD88CEA92E09B
:101D20000E94FD0197FFFACF8CEA92E00E94AB027D
:101D300062E370E080E090E00E94C7040E94CC0261
:101D400064CE109243041092420410924504109203
:101D500040041092410410923E0410923B041092F1
:101D60003C0410923D0410923F0457CEECEAF2E09E
:101D70001382128248EE53E060E070E044835583A2
:101D80006683778384E192E09183808325E331E069
:101D90003587248724E331E03787268720E331E045
:101DA000318B208B21E331E0338B228B22E331E036
:101DB000358B248B26E331E0378B268B118E128EE8
:101DC000138E148EE9E4F3E0138212824483558368
:101DD000668377839183808385EC90E09587848701
:101DE00084EC90E09787868780EC90E0918B808BE5
:101DF00081EC90E0938B828B82EC90E0958B848BCE
:101E000086EC90E0978B868B118E128E138E148E3B
:101E1000A9E3B4E01A961C921A9719961C92199786
:101E20001C961C921C971D961C921D9717961C922F
:101E3000179718961C92189715961C92159787E479
:101E400094E08D939C93F093B604E093B504E6E29E
:101E5000F4E086E292E091838083138614861586EF
:101E600016861786108A118A128AE8E0F4E085E166
:101E7000808384E181831682178210861186128204
:101E800013821482158216861786108A118A12868A
:101E9000138614861586138A128A158E148EE6EE22
:101EA000F3E082E08083818381E082831382148265
:101EB0001582168217821086118612861386158661
:101EC000148617861686118A108A138A128A158A32
:101ED000148A178A168A118E108E138E128E158E02
:101EE000148E178E168E11A210A208955058BB277B
:101EF000AA270ED0DCC0CDD030F0D2D020F031F403
:101F00009F3F11F41EF4C2C00EF4E095E7FBB8C089
:101F1000E92FDED080F3BA176207730784079507AD
:101F200018F071F49EF5F6C00EF4E0950B2EBA2F62
:101F3000A02D0B01B90190010C01CA01A0011124CF
:101F4000FF27591B99F0593F50F4503E68F11A167B
:101F5000F040A22F232F342F4427585FF3CF46950C
:101F600037952795A795F0405395C9F77EF41F162E
:101F7000BA0B620B730B840BBAF09150A1F0FF0FF8
:101F8000BB1F661F771F881FC2F70EC0BA0F621FE4
:101F9000731F841F48F4879577956795B795F795D4
:101FA0009E3F08F0B3CF9395880F08F09927EE0F66
:101FB00097958795089540D008F481E00895E894B6
:101FC00009C097FB3EF490958095709561957F4F81
:101FD0008F4F9F4F9923A9F0F92F96E9BB2793952F
:101FE000F695879577956795B795F111F8CFFAF43F
:101FF000BB0F11F460FF1BC06F5F7F4F8F4F9F4F70
:1020000016C0882311F096E911C0772321F09EE8CD
:10201000872F762F05C0662371F096E8862F70E033
:1020200060E02AF09A95660F771F881FDAF7880F0D
:102030009695879597F90895990F0008550FAA0B63
:10204000E0E8FEEF16161706E807F907C0F01216CB
:102050001306E407F50798F0621B730B840B950BCE
:1020600039F40A2661F0232B242B252B21F4089523
:102070000A2609F4A140A6958FEF811D811D0895C0
:1020800097F99F6780E870E060E008959FEF80EC2B
:10209000089500240A9416161706180609060895CE
:1020A00000240A9412161306140605060895092E34
:1020B0000394000C11F4882352F0BB0F40F4BF2BA3
:1020C00011F460FF04C06F5F7F4F8F4F9F4F0895E3
:1020D00057FD9058440F551F59F05F3F71F04795D9
:1020E000880F97FB991F61F09F3F79F087950895BE
:1020F000121613061406551FF2CF4695F1DF08C0DD
:10210000161617061806991FF1CF869571056105F9
:1021100008940895E894BB2766277727CB0197F9A1
:1021200008958ADF08F48FEF08950BD0C0CFB1DF98
:1021300028F0B6DF18F0952309F0A2CFA7CF11241D
:10214000EACFC6DFA0F3959FD1F3950F50E0551F5E
:10215000629FF001729FBB27F00DB11D639FAA27FC
:10216000F00DB11DAA1F649F6627B00DA11D661F4B
:10217000829F2227B00DA11D621F739FB00DA11D6C
:10218000621F839FA00D611D221F749F3327A00D26
:10219000611D231F849F600D211D822F762F6A2FC2
:1021A00011249F5750408AF0E1F088234AF0EE0F47
:1021B000FF1FBB1F661F771F881F91505040A9F754
:1021C0009E3F510570F05CCFA6CF5F3FECF3983E89
:1021D000DCF3869577956795B795F795E7959F5FBB
:1021E000C1F7FE2B880F911D9695879597F9089555
:1021F000EE0FFF1F881F8BBF0790F691E02D1994FB
:0C22000081E090E0F89400C0F894FFCF5B
:10220C0000A21300E6B7D740000000000303FF0252
:10221C00000000005F02C401EE01AB021F02FD01D1
:10222C001102000000003C03C2010000000050033A
:10223C00500353656E64205374617475732044614C
:10224C0074610053656E64204F4B21004F4B004569
:10225C0052524F522044415441205459504500771A
:0E226C00726F6E672064617461000D0A0000DD
:00000001FF
