:10000000F5C0000021C100001FC100001DC100009B
:100010001BC1000019C1000017C1000015C100007C
:1000200013C1000011C100000FC100000DC100008C
:100030000BC1000009C1000007C1000005C100009C
:1000400003C1000001C10000FFC00000FDC00000AE
:10005000FBC00000F9C00000F7C00000CAC30000E8
:10006000F3C0000090C3000065C30000EDC00000B5
:10007000EBC00000E9C00000E7C00000E5C00000E0
:10008000E3C00000E1C00000DFC00000DDC00000F0
:10009000DBC00000D9C00000D7C00000D5C0000000
:1000A000D3C00000D1C00000CFC00000CDC0000010
:1000B000CBC00000C9C00000C7C00000C5C0000020
:1000C000C3C00000C1C00000BFC00000BDC0000030
:1000D000BBC00000B9C00000B7C00000B5C0000040
:1000E000B3C0000000000A0B02090C0D0E08070344
:1000F00004010000000000000000000000000000FB
:1001000000000000000000000000000000000000EF
:1001100012111000000000000000000000000000AC
:100120000000000000000000000000002200250088
:1001300028002B002E0031003400020100000501D0
:1001400008010B0100002100240027002A002D00D7
:100150003000330001010000040107010A01050518
:100160000505070508080808020202020A0A08082D
:10017000040404040101010101010101030303035B
:1001800003030303040707070C0C0C0C0C0C0C0CEA
:100190000202020206060606060606060B0B0B0BFB
:1001A0000B0B0B0B01021020200808102040102020
:1001B000408002010201080402010102040810202B
:1001C0004080804020100804020180040201804029
:1001D0002010080402010804020101020408102092
:1001E00040800102040810204080430411241FBEF7
:1001F000CFEFD1E2DEBFCDBF00E00CBF12E0A0E048
:10020000B2E0ECE8FFE000E00BBF02C007900D9207
:10021000AA31B107D9F723E0AAE1B2E001C01D92EB
:10022000AA35B207E1F710E0C6EFD0E000E005C064
:1002300021970109802FFE019FD6C53FD10780E09D
:100240000807B1F77AD3A0C6DBCE90E0FC01EC55ED
:10025000FE4F2491825A9E4FFC018491882399F08D
:1002600090E0880F991FFC01EC5BFE4FA591B491C3
:10027000FC01E65DFE4F859194918FB7F894EC9167
:10028000E22BEC938FBF08958BE00895AF92BF925D
:10029000CF92DF92EF92FF920F931F93CF93DF9352
:1002A0006C017B018B01040F151FEB015E01AE1881
:1002B000BF08C017D10759F06991D601ED91FC91A3
:1002C0000190F081E02DC6011995892B79F7C501C0
:1002D000DF91CF911F910F91FF90EF90DF90CF9022
:1002E000BF90AF900895FC01538D448D252F30E0D1
:1002F000842F90E0821B930B541710F0CF96089533
:1003000001970895FC01918D828D981761F0A28D5F
:10031000AE0FBF2FB11D5D968C91928D9F5F9F7325
:10032000928F90E008958FEF9FEF0895FC01918DDB
:10033000828D981731F0828DE80FF11D858D90E048
:1003400008958FEF9FEF0895FC01918D228D892FE5
:1003500090E0805C9F4F821B91098F7399270895CD
:1003600083E292E0F1DF21E0892B09F420E0822F83
:100370000895FC01A48DA80FB92FB11DA35ABF4F3A
:100380002C91848D90E001968F739927848FA68994
:10039000B7892C93A089B1898C91837080648C93E8
:1003A000938D848D981306C00288F389E02D808197
:1003B0008F7D80830895EF92FF920F931F93CF93C9
:1003C000DF93EC0181E0888F9B8D8C8D98131AC090
:1003D000E889F989808185FF15C09FB7F894EE8977
:1003E000FF896083E889F9898081837080648083D4
:1003F0009FBF81E090E0DF91CF911F910F91FF901F
:10040000EF900895F62E0B8D10E00F5F1F4F0F73C6
:100410001127E02E8C8D8E110BC00FB607FCFACF82
:10042000E889F989808185FFF5CFCE01A2DFF2CF7F
:10043000EB8DEC0FFD2FF11DE35AFF4FF0829FB7BC
:10044000F8940B8FEA89FB8980818062D0CFCF93AB
:10045000DF93EC01888D8823B1F0AA89BB89E889F4
:10046000F9898C9185FD03C0808186FD0CC00FB693
:1004700007FCF7CF8C9185FFF2CF808185FFEDCF10
:10048000CE0177DFEACFDF91CF91089580E090E051
:10049000892B21F065DF81110E94000080E090E04F
:1004A000892B49F080E090E0892B29F00E94000020
:1004B00081110E94000080E090E0892B49F080E0EB
:1004C00090E0892B29F00E94000081110E94000019
:1004D00080E090E0892B49F080E090E0892B29F0C2
:1004E0000E94000081110C9400000895282F30E034
:1004F000F901EC51FF4F9491F901EC55FE4F4491F5
:10050000225A3E4FF9012491222309F434C0992341
:1005100009F191509231F0F4E92FF0E08827ED567F
:10052000FD4F8F4F29C5C402C802A502BC02C002FC
:10053000AA02CB02D102D502DB02DF02E302E9020A
:10054000ED02AA02F102F702FB02809180008F7790
:1005500080938000E22FF0E0EE0FFF1FE65DFE4F7C
:10056000A591B4918FB7F894EC91611148C0409572
:100570004E234C938FBF0895809180008F7DE8CFEC
:1005800080918000877FE4CF84B58F7784BDE2CFF0
:1005900084B58F7DFBCF8091B0008F778093B000C2
:1005A000D9CF8091B0008F7DF9CF809190008F7767
:1005B00080939000CFCF809190008F7DF9CF809174
:1005C0009000877FF5CF8091A0008F778093A00067
:1005D000C1CF8091A0008F7DF9CF8091A000877F4F
:1005E000F5CF809120018F7780932001B3CF809148
:1005F00020018F7DF9CF80912001877FF5CF4E2B91
:10060000B8CF3FB7F89480911F0290912002A0913B
:100610002102B091220226B5A89B05C02F3F19F0F8
:100620000196A11DB11D3FBFBA2FA92F982F882772
:10063000BC01CD01620F711D811D911D42E0660F4D
:10064000771F881F991F4A95D1F708958F929F921F
:10065000AF92BF92CF92DF92EF92FF926B017C013B
:10066000D0DF4B015C01C114D104E104F104B1F00D
:10067000C8DF681979098A099B09683E73408105BA
:10068000910588F321E0C21AD108E108F10888EE4B
:10069000880E83E0981EA11CB11CE5CFFF90EF905F
:1006A000DF90CF90BF90AF909F908F900895CF93A1
:1006B000DC011696CC911697ED91FC910280F381A6
:1006C000E02D1995C150C81B8C2FCF910895BF9272
:1006D000CF92DF92EF92FF920F931F93CF93DF930E
:1006E000B82EEB016A0184E0D594C7948A95E1F7AE
:1006F0000D2C000CEE08FF0810E000E061E08B2DEF
:10070000F5DEC701B601A2DF60E08B2DEFDE0F5FE3
:100710001F4F0C171D0721F0C701B60197DFEECF61
:10072000DF91CF911F910F91FF90EF90DF90CF90CD
:10073000BF9008951F920F920FB60F9211240BB61F
:100740000F922F933F934F935F936F937F938F936A
:100750009F93AF93BF93EF93FF9383E292E009DE01
:10076000FF91EF91BF91AF919F918F917F916F9189
:100770005F914F913F912F910F900BBE0F900FBE45
:100780000F901F9018951F920F920FB60F92112481
:100790000BB60F922F938F939F93EF93FF93E0915C
:1007A0003302F09134028081E0913902F0913A02F3
:1007B00082FD1DC0908180913C028F5F8F732091DC
:1007C0003D02821741F0E0913C02F0E0ED5DFD4F0B
:1007D000958F80933C02FF91EF919F918F912F9184
:1007E0000F900BBE0F900FBE0F901F901895808139
:1007F000F2CF1F920F920FB60F9211242F933F93B7
:100800008F939F93AF93BF9380911B0290911C0293
:10081000A0911D02B0911E0230911A0223E0230F15
:100820002D3758F50196A11DB11D20931A02809312
:100830001B0290931C02A0931D02B0931E02809194
:100840001F0290912002A0912102B09122020196F4
:10085000A11DB11D80931F0290932002A09321023D
:10086000B0932202BF91AF919F918F913F912F91B1
:100870000F900FBE0F901F90189526E8230F029639
:10088000A11DB11DD2CFE3E2F2E01382128288EE05
:1008900093E0A0E0B0E084839583A683B78384E0EF
:1008A00092E09183808385EC90E09587848784EC47
:1008B00090E09787868780EC90E0918B808B81EC2D
:1008C00090E0938B828B82EC90E0958B848B86EC0E
:1008D00090E0978B868B118E128E138E148EACED5A
:1008E000B2E01A961C921A9719961C9219971C96A8
:1008F0001C921C971D961C921D9717961C92179779
:1009000018961C92189715961C9215978AEE92E0ED
:100910008D939C93F0935903E0935803E9ECF2E034
:1009200086E192E09183808313861486158616866D
:100930001786108A118A128A0895789484B5826085
:1009400084BD84B5816084BD85B5826085BD85B573
:10095000816085BD80916E00816080936E001092F1
:10096000810080918100826080938100809181006C
:1009700081608093810080918000816080938000FD
:100980008091B10084608093B1008091B00081605B
:100990008093B0008091910082608093910080915B
:1009A000910081608093910080919000816080939C
:1009B00090008091A10082608093A1008091A100AD
:1009C00081608093A1008091A00081608093A0004D
:1009D00080912101826080932101809121018160B9
:1009E000809321018091200181608093200180917A
:1009F0007A00846080937A0080917A00826080938C
:100A00007A0080917A00816080937A0080917A00E8
:100A1000806880937A001092C1008DE016DC8DE032
:100A200014DC8DE012DCE0913302F091340282E0BC
:100A30008083E0912F02F09130021082E091310228
:100A4000F09132028FEC808310923B02E0913702EA
:100A5000F091380286E08083E0913502F091360211
:100A6000808180618083E0913502F091360280813F
:100A700088608083E0913502F09136028081806841
:100A80008083E0913502F091360280818F7D8083F2
:100A900083E292E0909359038093580342E350E03D
:100AA00063E070E08DE090E012DE10E2E12E02E003
:100AB000D02EFF24F39483E0C82E94E0B92E01EFEA
:100AC00010E08091E302811104C08091E402882348
:100AD000A1F01092E6021092E5021092E802109244
:100AE000E3021092E4021092E1021092DE021092F0
:100AF000DF021092E0021092E2028091580390917E
:100B00005903DC01ED91FC910084F185E02D1995EC
:100B1000892BB9F08091580390915903DC01ED9134
:100B2000FC910284F385E02D19958093E702909162
:100B3000E602992309F4BBC08E3709F09BC0C0922E
:100B4000E4028091E302882309F492C08091DE02DE
:100B5000803909F0DDC1E091DC02F091DD02F09313
:100B6000CC02E093CB028093CD02F092D20280912E
:100B7000E1028093D0028091E4028093D3028091BD
:100B8000E2028093D1028091DF028093CE028091B5
:100B9000E0028093CF02808190E0B0E0A0E0B82F27
:100BA000AA2799278827418150E070E060E0BA01C8
:100BB00055274427840F951FA61FB71F2381820F37
:100BC000911DA11DB11D228130E0322F2227820FFD
:100BD000931FA11DB11D8093D4029093D502A093C1
:100BE000D602B093D702848190E0B0E0A0E0B82FA5
:100BF000AA2799278827458150E070E060E0BA0174
:100C000055274427840F951FA61FB71F2781820FE2
:100C1000911DA11DB11D268130E0322F2227820FA8
:100C2000931FA11DB11D8093D8029093D902A09368
:100C3000DA02B093DB0282854AE050E06AE070E0BD
:100C4000813021F044E150E062E070E08DE090E01E
:100C50003EDDE091CB02F091CC02A384CA2DD0E01E
:100C60008DE0F3DA209709F093C060E08DE03EDC80
:100C70000DDC27CF8D37D9F480915803909159031B
:100C8000DC01ED91FC910084F185E02D1995892B13
:100C900081F18091580390915903DC01ED91FC9111
:100CA0000284F385E02D19958E258093E7028091CB
:100CB000E502882339F08091E7028E258093E702D0
:100CC0001092E5028091E602833038F09091E802BC
:100CD0002091E702920F9093E8028130A9F060F032
:100CE0008230C9F08330F1F08F3618F1D092E402EF
:100CF00028CFF092E50201CF8091E7028E3709F00C
:100D0000FCCEF092E602F9CE8091E7028093DF02FA
:100D1000D092E602F2CE8091E7028093E002C09288
:100D2000E602EBCE8091E7028093DE02B092E6020B
:100D3000E4CE482F50E02091E00230E02D5F3F4F9D
:100D400042175307A9F49091E8029F3F71F49091E4
:100D5000E7029093E102F092E3021092E4028450E1
:100D60008093E2021092E602ECCEF092E402F7CF1A
:100D70008091E702E091DC02F091DD02E40FF51FC3
:100D8000349780838091E6028F5F8093E602B5CE30
:100D9000CF3FD10511F461E069CFF8018491EFEF05
:100DA000E80FE23108F0AFC0F0E08827E652F94FD3
:100DB0008F4FE2C0EC06F106F60600070A0783072C
:100DC00014071C0724072E073807420751075B0743
:100DD000830765076F07790784B5806884BDA7BC62
:100DE00047CF84B5806284BDA8BC42CF809180008B
:100DF000806880938000D0938900C093880038CFAA
:100E000080918000806280938000D0938B00C0939B
:100E10008A002ECF80918000886080938000D093DC
:100E20008D00C0938C0024CF8091B00080688093A7
:100E3000B000A092B3001CCF8091B000806280937C
:100E4000B000A092B40014CF80919000806880938D
:100E50009000D0939900C09398000ACF80919000A1
:100E6000806280939000D0939B00C0939A0000CF43
:100E700080919000886080939000D0939D00C093F3
:100E80009C00F6CE8091A00080688093A0008091A5
:100E9000A0008F7B8093A000D093A900C093A800EE
:100EA000E7CE8091A00080628093A000D093AB0039
:100EB000C093AA00DDCE8091A00088608093A0003E
:100EC000D093AD00C093AC00D3CE80912001806858
:100ED00080932001D0932901C0932801C9CE80912D
:100EE0002001806280932001D0932B01C0932A01BE
:100EF000BFCE80912001886080932001D0932D0186
:100F0000C0932C01B5CEC038D1050CF044CFADCE86
:100F100049E150E061E070E08A3851F5E091DC028F
:100F2000F091DD02F093C102E093C0028093C2020F
:100F3000F092C7028091E1028093C5028091E402A1
:100F40008093C8028091E2028093C6028091DF0202
:100F50008093C3028091E0028093C402808182501A
:100F60004AE050E06AE070E0823010F065E070E046
:100F70008DE090E0ACDB7CCEEE0FFF1F881F8BBFB7
:0C0F80000790F691E02D1994F894FFCF33
:100F8C0000000000DB01460173012702A40182016D
:0A0F9C009601000000005703440115
:00000001FF
