:10000000F5C0000021C100001FC100001DC100009B
:100010001BC1000019C1000017C1000015C100007C
:1000200013C1000011C100000FC100000DC100008C
:100030000BC1000009C1000007C1000005C100009C
:1000400003C1000001C10000FFC00000FDC00000AE
:10005000FBC00000F9C00000F7C0000026C400008B
:10006000F3C00000ECC30000C1C30000EDC00000FD
:10007000EBC00000E9C00000E7C00000E5C00000E0
:10008000E3C00000E1C00000DFC00000DDC00000F0
:1000900077C300004CC30000D7C00000D5C00000EB
:1000A000D3C00000D1C00000CFC00000CDC0000010
:1000B000CBC00000C9C00000C7C00000C5C0000020
:1000C000C3C00000C1C00000BFC00000BDC0000030
:1000D000BBC00000B9C00000B7C00000B5C0000040
:1000E000B3C0000000000A0B02090C0D0E08070344
:1000F00004010000000000000000000000000000FB
:1001000000000000000000000000000000000000EF
:1001100012111000000000000000000000000000AC
:100120000000000000000000000000002200250088
:1001300028002B002E0031003400020100000501D0
:1001400008010B0100002100240027002A002D00D7
:100150003000330001010000040107010A01050518
:100160000505070508080808020202020A0A08082D
:10017000040404040101010101010101030303035B
:1001800003030303040707070C0C0C0C0C0C0C0CEA
:100190000202020206060606060606060B0B0B0BFB
:1001A0000B0B0B0B01021020200808102040102020
:1001B000408002010201080402010102040810202B
:1001C0004080804020100804020180040201804029
:1001D0002010080402010804020101020408102092
:1001E000408001020408102040809F0411241FBE9B
:1001F000CFEFD1E2DEBFCDBF00E00CBF12E0A0E048
:10020000B2E0EAE3FFE000E00BBF02C007900D920E
:10021000AA31B107D9F723E0AAE1B2E001C01D92EB
:10022000A73FB207E1F710E0C6EFD0E000E005C05D
:1002300021970109802FFE0176D6C53FD10780E0C6
:100240000807B1F7FCD377C6DBCE90E0FC01EC5594
:10025000FE4F2491825A9E4FFC018491882399F08D
:1002600090E0880F991FFC01EC5BFE4FA591B491C3
:10027000FC01E65DFE4F859194918FB7F894EC9167
:10028000E22BEC938FBF08958BE00895AF92BF925D
:10029000CF92DF92EF92FF920F931F93CF93DF9352
:1002A0006C017B018B01040F151FEB015E01AE1881
:1002B000BF08C017D10759F06991D601ED91FC91A3
:1002C0000190F081E02DC6011995892B79F7C501C0
:1002D000DF91CF911F910F91FF90EF90DF90CF9022
:1002E000BF90AF900895FC01538D448D252F30E0D1
:1002F000842F90E0821B930B541710F0CF96089533
:1003000001970895FC01918D828D981761F0A28D5F
:10031000AE0FBF2FB11D5D968C91928D9F5F9F7325
:10032000928F90E008958FEF9FEF0895FC01918DDB
:10033000828D981731F0828DE80FF11D858D90E048
:1003400008958FEF9FEF0895FC01918D228D892FE5
:1003500090E0805C9F4F821B91098F7399270895CD
:1003600083E292E0F1DF21E0892B09F420E0822F83
:10037000089580EC92E0E8DF21E0892B09F420E089
:10038000822F0895FC01A48DA80FB92FB11DA35A87
:10039000BF4F2C91848D90E001968F739927848FA5
:1003A000A689B7892C93A089B1898C9183708064C8
:1003B0008C93938D848D981306C00288F389E02D69
:1003C00080818F7D80830895EF92FF920F931F931A
:1003D000CF93DF93EC0181E0888F9B8D8C8D9813F8
:1003E0001AC0E889F989808185FF15C09FB7F89404
:1003F000EE89FF896083E889F98980818370806450
:1004000080839FBF81E090E0DF91CF911F910F919A
:10041000FF90EF900895F62E0B8D10E00F5F1F4FA9
:100420000F731127E02E8C8D8E110BC00FB607FCB9
:10043000FACFE889F989808185FFF5CFCE01A2DF67
:10044000F2CFEB8DEC0FFD2FF11DE35AFF4FF08241
:100450009FB7F8940B8FEA89FB8980818062D0CFA7
:10046000CF93DF93EC01888D8823B1F0AA89BB89F3
:10047000E889F9898C9185FD03C0808186FD0CC0D7
:100480000FB607FCF7CF8C9185FFF2CF808185FFF7
:10049000EDCFCE0177DFEACFDF91CF91089580E0F5
:1004A00090E0892B21F065DF81110E94000080E03F
:1004B00090E0892B21F054DF81110E94000080E040
:1004C00090E0892B49F080E090E0892B29F00E9490
:1004D000000081110E94000080E090E0892B49F02B
:1004E00080E090E0892B29F00E94000081110C949B
:1004F00000000895282F30E0F901EC51FF4F94914E
:10050000F901EC55FE4F4491225A3E4FF9012491D6
:10051000222309F434C0992309F191509231F0F467
:10052000E92FF0E08827E956FD4F8F4FFCC4C80241
:10053000CC02A902C002C402AE02CF02D502D90287
:10054000DF02E302E702ED02F102AE02F502FB0276
:10055000FF02809180008F7780938000E22FF0E08F
:10056000EE0FFF1FE65DFE4FA591B4918FB7F89493
:10057000EC91611148C040954E234C938FBF089574
:10058000809180008F7DE8CF80918000877FE4CFCD
:1005900084B58F7784BDE2CF84B58F7DFBCF80910A
:1005A000B0008F778093B000D9CF8091B0008F7D5D
:1005B000F9CF809190008F7780939000CFCF80917A
:1005C00090008F7DF9CF80919000877FF5CF80914B
:1005D000A0008F778093A000C1CF8091A0008F7D75
:1005E000F9CF8091A000877FF5CF809120018F7790
:1005F00080932001B3CF809120018F7DF9CF80912E
:100600002001877FF5CF4E2BB8CF3FB7F89480916C
:100610001F0290912002A0912102B091220226B5E2
:10062000A89B05C02F3F19F00196A11DB11D3FBF2A
:10063000BA2FA92F982F8827BC01CD01620F711DF9
:10064000811D911D42E0660F771F881F991F4A95F3
:10065000D1F708958F929F92AF92BF92CF92DF927F
:10066000EF92FF926B017C01D0DF4B015C01C11462
:10067000D104E104F104B1F0C8DF681979098A09ED
:100680009B09683E73408105910588F321E0C21AF9
:10069000D108E108F10888EE880E83E0981EA11CBD
:1006A000B11CE5CFFF90EF90DF90CF90BF90AF905F
:1006B0009F908F900895CF93DC011696CC9116975A
:1006C000ED91FC910280F381E02D1995C150C81B7A
:1006D0008C2FCF910895BF92CF92DF92EF92FF922D
:1006E0000F931F93CF93DF93B82E8B01D0E0C0E020
:1006F0006A01550FEE08FF0861E08B2DFBDEC70194
:10070000B601A8DF60E08B2DF5DE2196C017D1077A
:1007100021F0C701B6019EDFEFCFDF91CF911F918E
:100720000F91FF90EF90DF90CF90BF9008951F92B0
:100730000F920FB60F9211240BB60F922F933F9387
:100740004F935F936F937F938F939F93AF93BF93D9
:10075000EF93FF9383E292E015DEFF91EF91BF915B
:10076000AF919F918F917F916F915F914F913F9149
:100770002F910F900BBE0F900FBE0F901F901895EA
:100780001F920F920FB60F9211240BB60F922F9358
:100790008F939F93EF93FF93E0913302F091340294
:1007A0008081E0913902F0913A0282FD1DC0908172
:1007B00080913C028F5F8F7320913D02821741F040
:1007C000E0913C02F0E0ED5DFD4F958F80933C029F
:1007D000FF91EF919F918F912F910F900BBE0F90F2
:1007E0000FBE0F901F9018958081F2CF1F920F922D
:1007F0000FB60F9211240BB60F922F933F934F9386
:100800005F936F937F938F939F93AF93BF93EF9378
:10081000FF9380EC92E0B6DDFF91EF91BF91AF9135
:100820009F918F917F916F915F914F913F912F9108
:100830000F900BBE0F900FBE0F901F9018951F9238
:100840000F920FB60F9211240BB60F922F938F9326
:100850009F93EF93FF93E091D002F091D1028081BA
:10086000E091D602F091D70282FD1DC09081809167
:10087000D9028F5F8F732091DA02821741F0E091E5
:10088000D902F0E0E054FD4F958F8093D902FF919B
:10089000EF919F918F912F910F900BBE0F900FBEF4
:1008A0000F901F9018958081F2CF1F920F920FB674
:1008B0000F9211242F933F938F939F93AF93BF93E6
:1008C00080911B0290911C02A0911D02B0911E020A
:1008D00030911A0223E0230F2D3758F50196A11D00
:1008E000B11D20931A0280931B0290931C02A093C7
:1008F0001D02B0931E0280911F0290912002A091D0
:100900002102B09122020196A11DB11D80931F0208
:1009100090932002A0932102B0932202BF91AF9145
:100920009F918F913F912F910F900FBE0F901F902D
:10093000189526E8230F0296A11DB11DD2CFE3E240
:10094000F2E01382128248EE53E060E070E04483EC
:1009500055836683778384E092E0918380832DECD6
:1009600030E0358724872CEC30E03787268728EC69
:1009700030E0318B208B29EC30E0338B228B2AEC5A
:1009800030E0358B248B2EEC30E0378B268B118EAC
:10099000128E138E148EE0ECF2E0138212824483E6
:1009A0005583668377839183808385EC90E0958778
:1009B000848784EC90E09787868780EC90E0918B29
:1009C000808B81EC90E0938B828B82EC90E0958B16
:1009D000848B86EC90E0978B868B118E128E138E13
:1009E000148EA9E7B3E01A961C921A9719961C92D6
:1009F00019971C961C921C971D961C921D97179672
:100A00001C92179718961C92189715961C9215977A
:100A100087E893E08D939C93F093F603E093F503BE
:100A2000E6E6F3E086E192E0918380831386148604
:100A3000158616861786108A118A128A0895789468
:100A400084B5826084BD84B5816084BD85B58260D3
:100A500085BD85B5816085BD80916E008160809384
:100A60006E001092810080918100826080938100ED
:100A700080918100816080938100809180008160FD
:100A8000809380008091B10084608093B100809158
:100A9000B00081608093B00080919100826080936B
:100AA00091008091910081608093910080919000ED
:100AB0008160809390008091A10082608093A1006A
:100AC0008091A10081608093A1008091A00081604D
:100AD0008093A00080912101826080932101809108
:100AE00021018160809321018091200181608093A8
:100AF000200180917A00846080937A0080917A004E
:100B0000826080937A0080917A00816080937A007D
:100B100080917A00806880937A001092C1008DE005
:100B200094DB8DE092DB8DE090DB86E08EDB87E06E
:100B30008CDB88E08ADB89E088DB8AE086DB8BE07F
:100B400084DBE0913302F091340282E08083E09113
:100B50002F02F09130021082E0913102F0913202C6
:100B60008FEC808310923B02E0913702F0913802C3
:100B700086E08083E0913502F091360280818061C9
:100B80008083E0913502F091360280818860808315
:100B9000E0913502F0913602808180688083E09197
:100BA0003502F091360280818F7D808383E292E06E
:100BB0009093F6038093F50300E2A2E0BA2E11E0D1
:100BC000B3E0AB2EC4E09C2ED8EC8D2E87E7E82E48
:100BD000F12C80918003811104C0809181038823CE
:100BE000A1F0109283031092820310928503109259
:100BF00080031092810310927E0310927B03109267
:100C00007C0310927D0310927F038091F5039091F5
:100C1000F603DC01ED91FC910084F185E02D19953E
:100C2000892BB9F08091F5039091F603DC01ED91E9
:100C3000FC910284F385E02D1995809384039091B3
:100C40008303992309F4C4C08E3709F0A4C0A0928D
:100C5000810380918003882309F463C180917B0321
:100C6000803909F02BC1C0917903D0917A03D093D8
:100C70006903C093680380936A0310936F038091A4
:100C80007E0380936D038091810380937003809134
:100C90007F0380936E0380917C0380936B0380912C
:100CA0007D0380936C03888190E0B0E0A0E0B82FD2
:100CB000AA2799278827498150E070E060E0BA01AF
:100CC00055274427840F951FA61FB71F2B81820F1E
:100CD000911DA11DB11D2A8130E0322F2227820FE4
:100CE000931FA11DB11D8093710390937203A09374
:100CF0007303B09374038C8190E0B0E0A0E0B82F50
:100D0000AA27992788274D8150E070E060E0BA015A
:100D100055274427840F951FA61FB71F2F81820FC9
:100D2000911DA11DB11D2E8130E0322F2227820F8F
:100D3000931FA11DB11D8093750390937603A0931B
:100D40007703B09378032B96D7FDB3C061E087E0BB
:100D5000D1DB60E089E0CEDB8C9E60018D9ED00C03
:100D60001124D0E0C0E0CC15DD050CF0DAC061E064
:100D700086E0C0DB61E088E0BDDBC7010197F1F7E9
:100D800060E086E0B7DB60E088E0B4DBC701019794
:100D9000F1F72196E8CF8D37D9F48091F503909142
:100DA000F603DC01ED91FC910084F185E02D1995AD
:100DB000892B81F18091F5039091F603DC01ED918F
:100DC000FC910284F385E02D19958027809384039C
:100DD00080918203882339F0809184038027809357
:100DE00084031092820380918303833038F09091C2
:100DF000850320918403920F909385038130A9F09D
:100E000060F08230C9F08330F1F08F3618F1B09283
:100E100081031FCF10938203F8CE809184038E3715
:100E200009F0F3CE10938303F0CE80918403809376
:100E30007C03B0928303E9CE8091840380937D0389
:100E4000A0928303E2CE8091840380937B039092EF
:100E50008303DBCE482F50E020917D0330E02D5FEF
:100E60003F4F42175307A9F4909185039F3F71F4B8
:100E70009091840390937E031093800310928103DA
:100E8000845080937F0310928303E3CE10938103F9
:100E9000F7CF80918403E0917903F0917A03E40F16
:100EA000F51F34978083809183038F5F8093830342
:100EB000ACCE60E087E01EDB61E04CCF49E150E062
:100EC00061E070E08A3851F5E0917903F0917A039E
:100ED000F0935E03E0935D0380935F0310936403DC
:100EE00080917E03809362038091810380936503E8
:100EF00080917F038093630380917C0380936003E0
:100F000080917D0380936103808182504AE050E0AC
:100F10006AE070E0823010F065E070E08DE090E013
:100F2000DADBBDDA56CEEE0FFF1F881F8BBF0790AE
:0A0F3000F691E02D1994F894FFCF1C
:100F3A0000000000E401460173013002A4018201AD
:0A0F4A009601000000005B03440163
:00000001FF
