:10000000F5C0000021C100001FC100001DC100009B
:100010001BC1000019C1000017C1000015C100007C
:1000200013C1000011C100000FC100000DC100008C
:100030000BC1000009C1000007C1000005C100009C
:1000400003C1000001C10000FFC00000FDC00000AE
:10005000FBC00000F9C00000F7C000002EC4000083
:10006000F3C00000F4C30000C9C30000EDC00000ED
:10007000EBC00000E9C00000E7C00000E5C00000E0
:10008000E3C00000E1C00000DFC00000DDC00000F0
:100090007FC3000054C30000D7C00000D5C00000DB
:1000A000D3C00000D1C00000CFC00000CDC0000010
:1000B000CBC00000C9C00000C7C00000C5C0000020
:1000C000C3C00000C1C00000BFC00000BDC0000030
:1000D000BBC00000B9C00000B7C00000B5C0000040
:1000E000B3C0000000000A0B02090C0D0E08070344
:1000F00004010000000000000000000000000000FB
:1001000000000000000000000000000000000000EF
:1001100012111000000000000000000000000000AC
:100120000000000000000000000000002200250088
:1001300028002B002E0031003400020100000501D0
:1001400008010B0100002100240027002A002D00D7
:100150003000330001010000040107010A01050518
:100160000505070508080808020202020A0A08082D
:10017000040404040101010101010101030303035B
:1001800003030303040707070C0C0C0C0C0C0C0CEA
:100190000202020206060606060606060B0B0B0BFB
:1001A0000B0B0B0B01021020200808102040102020
:1001B000408002010201080402010102040810202B
:1001C0004080804020100804020180040201804029
:1001D0002010080402010804020101020408102092
:1001E00040800102040810204080A70411241FBE93
:1001F000CFEFD1E2DEBFCDBF00E00CBF12E0A0E048
:10020000B2E0E4E7FCE000E00BBF02C007900D9213
:10021000AA31B107D9F723E0AAE1B2E001C01D92EB
:10022000AE3EB207E1F710E0C6EFD0E000E005C057
:1002300021970109802FFE0113D5C53FD10780E02A
:100240000807B1F704D414C5DBCE90E0FC01EC55EF
:10025000FE4F2491825A9E4FFC018491882399F08D
:1002600090E0880F991FFC01EC5BFE4FA591B491C3
:10027000FC01E65DFE4F859194918FB7F894EC9167
:10028000E22BEC938FBF0895AF92BF92CF92DF9293
:10029000EF92FF920F931F93CF93DF936C017B013B
:1002A0008B01040F151FEB015E01AE18BF08C017CC
:1002B000D10759F06991D601ED91FC910190F0813F
:1002C000E02DC6011995892B79F7C501DF91CF91F2
:1002D0001F910F91FF90EF90DF90CF90BF90AF9064
:1002E0000895FC01538D448D252F30E0842F90E03C
:1002F000821B930B541710F0CF9608950197089521
:10030000FC01918D828D981761F0A28DAE0FBF2FE9
:10031000B11D5D968C91928D9F5F9F73928F90E03F
:1003200008958FEF9FEF0895FC01918D828D9817AE
:1003300031F0828DE80FF11D858D90E008958FEFEB
:100340009FEF0895FC01918D228D892F90E0805CB4
:100350009F4F821B91098F739927089583E292E042
:10036000F1DF21E0892B09F420E0822F089580EC51
:1003700092E0E8DF21E0892B09F420E0822F089544
:10038000FC01A48DA80FB92FB11DA35ABF4F2C910A
:10039000848D90E001968F739927848FA689B78901
:1003A0002C93A089B1898C91837080648C93938DF8
:1003B000848D981306C00288F389E02D80818F7D9B
:1003C00080830895EF92FF920F931F93CF93DF9353
:1003D000EC0181E0888F9B8D8C8D98131AC0E88981
:1003E000F989808185FF15C09FB7F894EE89FF8950
:1003F0006083E889F98980818370806480839FBFEE
:1004000081E090E0DF91CF911F910F91FF90EF90ED
:100410000895F62E0B8D10E00F5F1F4F0F731127FD
:10042000E02E8C8D8E110BC00FB607FCFACFE88939
:10043000F989808185FFF5CFCE01A2DFF2CFEB8D68
:10044000EC0FFD2FF11DE35AFF4FF0829FB7F89498
:100450000B8FEA89FB8980818062D0CFCF93DF93B5
:10046000EC01888D8823B1F0AA89BB89E889F989D4
:100470008C9185FD03C0808186FD0CC00FB607FC02
:10048000F7CF8C9185FFF2CF808185FFEDCFCE0134
:1004900077DFEACFDF91CF91089580E090E0892B5C
:1004A00021F065DF81110E94000080E090E0892B3F
:1004B00021F054DF81110E94000080E090E0892B40
:1004C00049F080E090E0892B29F00E940000811122
:1004D0000E94000080E090E0892B49F080E090E0ED
:1004E000892B29F00E94000081110C9400000895CE
:1004F000282F30E0F901EC51FF4F9491F901EC55B0
:10050000FE4F4491225A3E4FF9012491222309F4CF
:1005100034C0992309F191509231F0F4E92FF0E0C1
:100520008827EB56FD4F8F4F9BC3C602CA02A70216
:10053000BE02C202AC02CD02D302D702DD02E1024A
:10054000E502EB02EF02AC02F302F902FD02809138
:1005500080008F7780938000E22FF0E0EE0FFF1F86
:10056000E65DFE4FA591B4918FB7F894EC916111BF
:1005700048C040954E234C938FBF089580918000D2
:100580008F7DE8CF80918000877FE4CF84B58F771F
:1005900084BDE2CF84B58F7DFBCF8091B0008F7793
:1005A0008093B000D9CF8091B0008F7DF9CF80913A
:1005B00090008F7780939000CFCF809190008F7DB7
:1005C000F9CF80919000877FF5CF8091A0008F7741
:1005D0008093A000C1CF8091A0008F7DF9CF809142
:1005E000A000877FF5CF809120018F778093200135
:1005F000B3CF809120018F7DF9CF80912001877F3B
:10060000F5CF4E2BB8CF3FB7F89480911F02909151
:100610002002A0912102B091220226B5A89B05C01C
:100620002F3F19F00196A11DB11D3FBFBA2FA92F71
:10063000982F8827BC01CD01620F711D811D911D6E
:1006400042E0660F771F881F991F4A95D1F70895DA
:100650008F929F92AF92BF92CF92DF92EF92FF92D2
:100660004B015C01D0DF6B017C01CDDF6C197D0992
:100670008E099F09683E734081059105B0F321E022
:10068000821A9108A108B10888EEC80E83E0D81E2E
:10069000E11CF11C81149104A104B10431F7FF9015
:1006A000EF90DF90CF90BF90AF909F908F90089584
:1006B000CF93DC011696CC911697ED91FC910280B8
:1006C000F381E02D1995C150C81B8C2FCF9108954F
:1006D0008BE00895EF92FF920F931F93CF93DF93D8
:1006E000EC0161E087E004DF60E089E001DF88EC95
:1006F0008C9F70018D9FF00C1124D0E0C0E007E7C3
:1007000010E0EC16FD06A1F061E086E0F1DE61E0AC
:1007100088E0EEDEC8010197F1F760E086E0E8DEF0
:1007200060E088E0E5DEC8010197F1F72196E9CFA6
:10073000DF91CF911F910F91FF90EF9008951F923D
:100740000F920FB60F9211240BB60F922F933F9377
:100750004F935F936F937F938F939F93AF93BF93C9
:10076000EF93FF9383E292E00BDEFF91EF91BF9155
:10077000AF919F918F917F916F915F914F913F9139
:100780002F910F900BBE0F900FBE0F901F901895DA
:100790001F920F920FB60F9211240BB60F922F9348
:1007A0008F939F93EF93FF93E0913302F091340284
:1007B0008081E0913902F0913A0282FD1DC0908162
:1007C00080913C028F5F8F7320913D02821741F030
:1007D000E0913C02F0E0ED5DFD4F958F80933C028F
:1007E000FF91EF919F918F912F910F900BBE0F90E2
:1007F0000FBE0F901F9018958081F2CF1F920F921D
:100800000FB60F9211240BB60F922F933F934F9375
:100810005F936F937F938F939F93AF93BF93EF9368
:10082000FF9380EC92E0ACDDFF91EF91BF91AF912F
:100830009F918F917F916F915F914F913F912F91F8
:100840000F900BBE0F900FBE0F901F9018951F9228
:100850000F920FB60F9211240BB60F922F938F9316
:100860009F93EF93FF93E091D002F091D1028081AA
:10087000E091D602F091D70282FD1DC09081809157
:10088000D9028F5F8F732091DA02821741F0E091D5
:10089000D902F0E0E054FD4F958F8093D902FF918B
:1008A000EF919F918F912F910F900BBE0F900FBEE4
:1008B0000F901F9018958081F2CF1F920F920FB664
:1008C0000F9211242F933F938F939F93AF93BF93D6
:1008D00080911B0290911C02A0911D02B0911E02FA
:1008E00030911A0223E0230F2D3758F50196A11DF0
:1008F000B11D20931A0280931B0290931C02A093B7
:100900001D02B0931E0280911F0290912002A091BF
:100910002102B09122020196A11DB11D80931F02F8
:1009200090932002A0932102B0932202BF91AF9135
:100930009F918F913F912F910F900FBE0F901F901D
:10094000189526E8230F0296A11DB11DD2CFE3E230
:10095000F2E01382128248EE53E060E070E04483DC
:1009600055836683778384E092E0918380832DECC6
:1009700030E0358724872CEC30E03787268728EC59
:1009800030E0318B208B29EC30E0338B228B2AEC4A
:1009900030E0358B248B2EEC30E0378B268B118E9C
:1009A000128E138E148EE0ECF2E0138212824483D6
:1009B0005583668377839183808385EC90E0958768
:1009C000848784EC90E09787868780EC90E0918B19
:1009D000808B81EC90E0938B828B82EC90E0958B06
:1009E000848B86EC90E0978B868B118E128E138E03
:1009F000148EA0E7B3E01A961C921A9719961C92CF
:100A000019971C961C921C971D961C921D97179661
:100A10001C92179718961C92189715961C9215976A
:100A20008EE793E08D939C93F093ED03E093EC03BA
:100A3000EDE5F3E086E192E09183808313861486EE
:100A4000158616861786108A118A128A0895789458
:100A500084B5826084BD84B5816084BD85B58260C3
:100A600085BD85B5816085BD80916E008160809374
:100A70006E001092810080918100826080938100DD
:100A800080918100816080938100809180008160ED
:100A9000809380008091B10084608093B100809148
:100AA000B00081608093B00080919100826080935B
:100AB00091008091910081608093910080919000DD
:100AC0008160809390008091A10082608093A1005A
:100AD0008091A10081608093A1008091A00081603D
:100AE0008093A000809121018260809321018091F8
:100AF0002101816080932101809120018160809398
:100B0000200180917A00846080937A0080917A003D
:100B1000826080937A0080917A00816080937A006D
:100B200080917A00806880937A001092C1008DE0F5
:100B30008CDB8DE08ADB8DE088DB86E086DB87E07E
:100B400084DB88E082DB89E080DB8AE07EDB8BE08F
:100B50007CDBE0913302F091340282E08083E0910B
:100B60002F02F09130021082E0913102F0913202B6
:100B70008FEC808310923B02E0913702F0913802B3
:100B800086E08083E0913502F091360280818061B9
:100B90008083E0913502F091360280818860808305
:100BA000E0913502F0913602808180688083E09187
:100BB0003502F091360280818F7D808383E292E05E
:100BC0009093ED038093EC0368E371E080E090E0A4
:100BD0003FDD90E080E07EDD6BEB70E080E090E058
:100BE00037DD82E090E076DD6CE970E080E090E057
:100BF0002FDD82E090E06EDD6CE970E080E090E057
:100C000027DD90E080E066DD6BEB70E080E090E057
:100C10001FDD90E080E05EDD6BEB70E080E090E057
:100C200017DD90E080E056DD6BEB70E080E090E057
:100C30000FDD81E090E04EDD60E086E059DC60E0B1
:100C400088E056DC60E08AE053DC60E087E050DC5E
:100C500060E089E04DDC60E08BE04ADC1EDCFECF2A
:100C6000EE0FFF1F881F8BBF0790F691E02D1994A0
:040C7000F894FFCF26
:100C740000000000E201440171012E02A201800182
:0A0C8400940100000000580368030B
:00000001FF
